:020000040800F2
:10000000C82E002029020008A91E0008371D00087C
:10001000A51E0008B3050008BD2700080000000069
:10002000000000000000000000000000AF1E0008FB
:100030006F07000800000000AD1E0008B11E000898
:10004000430200084302000843020008430200087C
:10005000430200084302000843020008430200086C
:10006000430200084302000843020008610600083A
:10007000430200084302000843020008430200084C
:10008000430200084302000843020008430200083C
:10009000430200084302000843020008430200082C
:1000A000430200084302000843020008430200081C
:1000B000430200084302000843020008430200080C
:1000C00043020008430200084302000843020008FC
:1000D00043020008430200084302000843020008EC
:1000E00043020008430200084302000843020008DC
:1000F00043020008430200084302000863060008A8
:1001000043020008430200084302000843020008BB
:1001100043020008851F000843020008430200084C
:10012000430200084302000843020008430200089B
:10013000430200084302000843020008430200088B
:10014000430200084302000843020008430200087B
:100150004302000843020008430200080927000880
:10016000430200084302000843020008430200085B
:100170004302000843020008430200080000000098
:10018000430200084302000800F002F800F03CF8C7
:100190000AA090E8000C82448344AAF10107DA45E2
:1001A00001D100F031F8AFF2090EBAE80F0013F0F8
:1001B000010F18BFFB1A43F001031847942E0000EB
:1001C000B42E0000103A24BF78C878C1FAD852077C
:1001D00024BF30C830C144BF04680C6070470000C1
:1001E0000023002400250026103A28BF78C1FBD840
:1001F000520728BF30C148BF0B6070471FB502F0DF
:100200006DFD1FBD10B510BD00F099F91146FFF747
:10021000F5FF02F07FFC00F0B7F903B4FFF7F2FF3F
:1002200003BC00F0BFF900000948804709480047B7
:10023000FEE7FEE7FEE7FEE7FEE7FEE7FEE7FEE796
:10024000FEE7FEE704480549054A064B70470000F3
:10025000711F000889010008C8160020C82E002060
:10026000C8180020C818002053EA020C00F069806A
:100270002DE9F04B4FF00006002B1FBFB3FA83F5BA
:1002800003FA05F424FA05F65E4012BF1643B2FAEB
:1002900082F502FA05F4C5F120051EBF22FA05FC1D
:1002A00044EA0C04203556EA044C4FEA144418BFC3
:1002B000641C4FF000084FF00009904271EB030CF2
:1002C00039D3002919BFB1FA81F701FA07F6B0FA5C
:1002D00080F700FA07F6C7F120071EBF20FA07FCD7
:1002E00046EA0C062037B6FBF4FCA7EB0507103FE7
:1002F00007F01F0BCBF120060CFA0BFB2CFA06F6CD
:1003000044BFB3460026202FA4BF5E464FF0000B2B
:100310005BEA060C08BF4FF0010B19EB0B09ABFBB6
:10032000027C48EB0608C01B06FB02CC0BFB03CC8F
:1003300071EB0C01C1E70B46024641464846BDE859
:10034000F08B13B54FF000004FF00001AFF30080C9
:10035000BDE81C40704730B505460B462A4613F8E9
:10036000014B12F8010B08B1A042F8D01CB10028D3
:1003700002D06D1CF1E7284630BD10B5431C02E0E9
:1003800010F8011B71B18107FAD14FF0013202C898
:100390008C1A8C4314EAC211F9D0C01A0A0603D091
:1003A000C01E10BDC01A10BD0A0401D0801E10BDB1
:1003B0000902FCD0401E10BD032A40F2308010F02C
:1003C000030C00F0158011F8013BBCF1020F6244F0
:1003D00098BF11F801CB00F8013B38BF11F8013B81
:1003E000A2F1040298BF00F801CB38BF00F8013B2E
:1003F00011F0030300F07180083AC0F0088051F852
:10040000043B083A51F804CBA0E80810F5E7121DA8
:100410005CBF51F8043B40F8043BAFF30080D207C7
:1004200024BF11F8013B11F801CB48BF11F8012B93
:1004300024BF00F8013B00F801CB48BF00F8012BB6
:1004400070474FF000020429C0F0128010F0030C36
:1004500000F01B80CCF1040CBCF1020F18BF00F8B7
:10046000012BA8BF20F8022BA1EB0C0100F00DB866
:100470005FEAC17C24BF00F8012B00F8012B48BFC4
:1004800000F8012B70474FF0000200B51346944668
:100490009646203922BFA0E80C50A0E80C50B1F1DC
:1004A0002001BFF4F7AF090728BFA0E80C5048BFF0
:1004B0000CC05DF804EB890028BF40F8042B08BF8E
:1004C000704748BF20F8022B11F0804F18BF00F88A
:1004D000012B704770477047704710B5203AC0F045
:1004E0000B80B1E81850203AA0E81850B1E8185035
:1004F000A0E81850BFF4F5AF5FEA027C24BFB1E872
:100500001850A0E8185044BF18C918C0BDE81040E2
:100510005FEA827C24BF51F8043B40F8043B08BFEB
:100520007047D20728BF31F8023B48BF11F8012BB2
:1005300028BF20F8023B48BF00F8012B70477546E2
:1005400000F02CF8AE4605006946534620F007003F
:10055000854618B020B5FFF775FEBDE820404FF086
:1005600000064FF000074FF000084FF0000B21F09D
:100570000701AC46ACE8C009ACE8C009ACE8C0096A
:10058000ACE8C0098D46704710B50446AFF3008053
:100590002046BDE81040FFF740BE0000004870470D
:1005A0006816002001491820ABBEFEE726000200B5
:1005B000704700BFFEE7FCB504460D4600200190E1
:1005C00003270090002623E014F8010B00906946F1
:1005D000684601F0B2FB9DF804009DF80010484009
:1005E0000190002612E09DF8040000F0800038B170
:1005F0009DF80400400080EA0710C0B2019004E0BA
:100600009DF804004006000E0190761C082EEADBDF
:10061000281EA5F10105D7D101A901A801F08DFB84
:100620009DF80400FCBD000070B502460C46FF2595
:10063000FF2309E012F8010B80EA05010648405C3F
:1006400080EA03050548435C201EA4F10106B4B20C
:10065000F0D143EA052070BDE62C0008E62D000825
:10066000704770470146087810381823B0FBF3F242
:100670000848805CC865032A05D908686FF309003B
:10068000001D886503E008686FF309008865886DC0
:1006900070470000E62E0008014600208A6A8B6938
:1006A000CBB932B1012A0DD0022A03D0032A10D1CE
:1006B0000EE000BFCB6A03F08073B3F1807F00D1FE
:1006C000012007E0CB6AB3F1C07F00D1012001E037
:1006D00000E000BF34E08B69B3F5005F1AD132B19E
:1006E000012A07D0022A03D0032A11D10AE000BF51
:1006F00001200EE0CB6A03F08073B3F1807F00D15C
:10070000012006E0CB6AB3F1C07F00D1012000E0F8
:1007100000BF15E032B1012A05D0022A04D0032A15
:100720000CD103E000BF00BF012008E0CB6A03F05A
:100730008073B3F1807F00D1012000E000BF00BFD3
:10074000704730B50468246824F4802405682C6060
:10075000046863608468402C04D10468A260046863
:10076000E16003E00468A1600468E26030BD7047A6
:1007700072B600BFFEE770B50446A56D00F03AFA08
:10078000064694F83500022808D08020606500BF36
:10079000002084F8340000BF012070BD206800688C
:1007A00020F01600216808602068406920F0800071
:1007B00021684861206C08B9A06C28B120680068E5
:1007C00020F00800216808602068006820F001001F
:1007D0002168086010E000F00DFA801B05280BD995
:1007E00020206065032084F8350000BF002084F8D5
:1007F000340000BF0320D0E72068006800F001004B
:100800000028E8D194F85C103F208840A8600120BF
:1008100084F8350000BF002084F8340000BF00BF1A
:10082000BBE7014691F83500022803D080204865D7
:1008300001207047052081F835000868006820F025
:1008400001000A6810600020F3E700002DE9F04184
:100850000446002500F0CEF9074614B90120BDE892
:10086000F081606A00B100BF022084F8350000BF4B
:10087000002084F8340000BF2068006820F00100E8
:10088000216808600AE000F0B5F9C01B052805D909
:1008900020206065032084F83500E0E720680068C8
:1008A00000F001000028EED12068056821480540CD
:1008B000D4E901010843E1680843216908436169FB
:1008C0000843A1690843E1690843216A08430543D5
:1008D000606A042803D1D4E90B010843054320686A
:1008E00005602068456925F00705606A0543606A70
:1008F00004280DD1A06A0543E06A48B12046FFF7FD
:10090000CBFE28B140206065012084F83500A6E7C1
:10091000206845612046FFF7A5FE064694F85C1066
:100920003F208840B06000206065012084F83500D9
:10093000002094E73F8010F02DE9F04704460D4673
:1009400016461F464FF00008D4F8589000BF94F8A0
:100950003400012802D10220BDE8F087012084F88C
:10096000340000BF94F83500012825D1022084F816
:100970003500002060653B46324629462046FFF799
:10098000E0FE94F85C103F208840C9F80800206819
:10099000006840F0160021680860206C28B12068CB
:1009A000006840F00800216808602068006840F096
:1009B00001002168086006E000BF002084F83400D0
:1009C00000BF4FF002084046C6E7000070B504467D
:1009D00000F010F906462546681C10B1044800785E
:1009E000054400BF00F006F9801BA842FAD370BD91
:1009F00058000020F8B502460B46002500240020D0
:100A00000021D6E0012606FA01F51E6806EA050473
:100A1000AC4274D11E7906F00306012E04D01E7973
:100A200006F00306022E13D190684F000326BE4045
:100A3000B0434F00DE68BE403043906050680126EE
:100A40008E40B0431E79C6F300168E40304350608E
:100A50001E7906F00306032E09D0D0684F00032646
:100A6000BE40B0434F009E68BE403043D0601E7908
:100A700006F00306022E13D1CF0802F1200656F825
:100A800027004E07F70E0F26BE40B0434F07FF0E5C
:100A90001E69BE403043CF0802F1200646F8270009
:100AA00010684F000326BE40B0431E7906F00306CF
:100AB0004F00BE40304310605E6806F44036002EA2
:100AC00076D000BF002600963C4E366846F480463D
:100AD0003A4F3E603E46366806F48046009600BFB8
:100AE00000BF374E8F0856F827008E07370F0F26A6
:100AF000BE40B043334EB24202D1002624E057E05C
:100B0000314EB24201D101261EE0304EB24201D137
:100B1000022619E02E4EB24201D1032614E02D4EDA
:100B2000B24201D104260FE02B4EB24201D105267C
:100B30000AE02A4EB24201D1062605E0284EB24212
:100B400001D1072600E008268F073F0FBE40304343
:100B50001B4E8F0846F82700224E3068A0435E687F
:100B600006F4801606B120431E4E3060361D3068F4
:100B7000A0435E6806F4001606B12043194E361DE8
:100B80003060184E361F3068A0435E6806F40036A9
:100B900006B12043134E361F3060361F3068A04325
:100BA0005E6806F4803606B120430E4E083E306083
:100BB000491C1029FFF426AFF8BD0000443802405C
:100BC00008380140000002400004024000080240D2
:100BD000000C0240001002400014024000180240C5
:100BE000001C0240083C01400AB1816101E00B0495
:100BF0008361704701480068704700005000002082
:100C000003480068034909780844014908607047AF
:100C1000500000205800002010B50D48006840F436
:100C200000700B4908600846006840F48060086066
:100C30000846006840F480700860032000F0A2F8C5
:100C40000F2000F007F800F02BF8002010BD000086
:100C5000003C024070B504460E4800784FF47A71AB
:100C6000B1FBF0F00C490968B1FBF0F5284600F043
:100C70002BFC08B1012070BD102C07D200222146A8
:100C8000501E00F041F80548046001E00120F2E741
:100C90000020F0E7580000205C00002054000020F5
:100CA00008B500BF002000900E48006840F4804066
:100CB0000C4908600846006800F48040009000BFBE
:100CC00000BF00BF00200090081F006840F0805067
:100CD000091F08600846006800F08050009000BFBF
:100CE00000BF08BD4438024001460846002809DB21
:100CF00000F01F0301229A4043099B0003F1E02307
:100D0000C3F8002100BF70472DE9F05F80460D4613
:100D10001646002701F054FD074639462A46334659
:100D200001F00700C0F1070ABAF1040F02D94FF031
:100D3000040A01E0C0F1070AD14600F1040ABAF141
:100D4000070F02D24FF0000A01E0A0F1030AD446D7
:100D50004FF0010A0AFA09FAAAF1010A0AEA020A9C
:100D60000AFA0CFA4FF0010B0BFA0CFBABF1010B7A
:100D70000BEA030B4AEA0B042146404601F028FD2A
:100D8000BDE8F09F00BF00F00702064B19684FF660
:100D9000FF031940044B0B4343EA0221014B196046
:100DA00000BF70470CED00E00000FA0570B5044686
:100DB0000D460CB9012070BD5848006800F00700CE
:100DC000A84209D255490D700846006800F0070096
:100DD000A84201D00120EEE7207800F002000228AE
:100DE0001DD1207800F00400042805D14C4800688B
:100DF00040F4E0504A490860207800F008000828D4
:100E000005D14748006840F46040454908604448BF
:100E1000006820F0F000A16808434149086020788C
:100E200000F00100A8B36068012807D13C480838E9
:100E30000068C0F34040B8B90120BCE760680228F0
:100E400002D06068032807D1354808380068C0F32D
:100E5000406048B90120AEE7314808380068C0F367
:100E6000400008B90120A6E72D48006820F00300E3
:100E7000616808432A490860FFF7BCFE064609E09E
:100E8000FFF7B8FE801B41F28831884202D9032067
:100E900091E707E02248006800F00C006168B0EBC1
:100EA000810FEDD11D48006800F00700A84209D964
:100EB0001A490D700846006800F00700A84201D0EA
:100EC000012078E7207800F00400042807D11448B6
:100ED000006820F4E050E168084311490860207878
:100EE00000F00800082808D10D48006820F4604090
:100EF000216940EAC1000A49086000F03FF808494A
:100F00000968C1F30311074A515CC84006490860EB
:100F100006480068FFF79EFE00204CE7003C0240B8
:100F200008380240EE2E00085C000020540000202B
:100F300001480068704700005C00002000B5FFF722
:100F4000F7FF04490968C1F38221034A515CC84094
:100F500000BD000008380240FE2E000800B5FFF773
:100F6000E7FF04490968C1F34231034A515CC840B4
:100F700000BD000008380240FE2E00082DE9F047B1
:100F8000002400250026A1462548006800F00C003A
:100F900020B1042805D008283AD105E0DFF8849074
:100FA00039E0DFF8849036E01D48001F006800F04B
:100FB0003F041B48001F006800F4800078B11A4805
:100FC0001749091F0968C1F38811A0FB0170014688
:100FD000224600233846FFF747F905460EE0114840
:100FE0000F49091F0968C1F38811A0FB0170014670
:100FF000224600233846FFF737F905460848001F08
:101000000068C0F30140401C4600B5FBF6F902E061
:10101000DFF8109000BF00BF4846BDE8F087000031
:10102000083802400024F40040787D01F8B50446F9
:101030000CB90120F8BD207800F00100002874D020
:10104000F948006800F00C0004280DD0F64800684C
:1010500000F00C00082813D1F348001F006800F4CA
:101060008000B0F5800F0BD1EF4808380068C0F35E
:101070004040002859D06068002856D10120D9E7A7
:1010800000BF6068B0F5803F08D1E74808380068C5
:1010900040F48030E449083908601EE06068B0F52B
:1010A000A02F0DD1E0480838006840F48020DE49C8
:1010B000083908600846006840F4803008600CE099
:1010C000D9480838006820F48030D74908390860CA
:1010D0000846006820F48020086000BF606890B176
:1010E000FFF788FD054606E0FFF784FD401B6428F6
:1010F00001D903209EE7CC4808380068C0F340407F
:101100000028F1D011E0FFF775FD054606E0FFF776
:1011100071FD401B642801D903208BE7C2480838C1
:101120000068C0F340400028F1D1207800F00200B0
:1011300002285FD1BC48006800F00C0058B1BA48E2
:10114000006800F00C0008281CD1B748001F006898
:1011500000F48000B0B9B44808380068C0F340001B
:1011600020B1E068012801D0012063E7AE480838CB
:10117000006820F0F800216940EAC100AA49083956
:10118000086037E0E06800B30120A8490860FFF775
:1011900031FD054606E0FFF72DFD401B022801D971
:1011A000032047E7A04808380068C0F34000002843
:1011B000F1D09D480838006820F0F800216940EA25
:1011C000C10099490839086014E000209749086077
:1011D000FFF710FD054606E0FFF70CFD401B022857
:1011E00001D9032026E7904808380068C0F3400082
:1011F0000028F1D1207800F0080008282CD160697F
:10120000A8B101208A490860FFF7F4FC054606E012
:10121000FFF7F0FC401B022801D903200AE78248AF
:101220006C300068C0F340000028F1D014E00020CA
:101230007F490860FFF7DEFC054606E0FFF7DAFCB1
:10124000401B022801D90320F4E677486C3000687F
:10125000C0F340000028F1D1207800F004000428F9
:1012600070D1002770483830006800F0805090B985
:1012700000BF002000906C483830006840F080507B
:101280006949383108600846006800F080500090D5
:1012900000BF00BF01276748006800F48070B0B944
:1012A0006448006840F4807062490860FFF7A2FC5F
:1012B000054606E0FFF79EFC401B022801D90320EB
:1012C000B8E65C48006800F480700028F2D000BFE7
:1012D000A068012808D154486830006840F0010037
:1012E0005149683108601DE0A06805280DD14E48BD
:1012F0006830006840F004004B49683108600846D7
:10130000006840F0010008600CE047486830006861
:1013100020F001004449683108600846006820F068
:101320000400086000BFA068A8B1FFF763FC054691
:1013300009E0FFF75FFC401B41F28831884202D987
:10134000032077E626E0384868300068C0F34000A4
:101350000028EED013E0FFF74DFC054608E0FFF74C
:1013600049FC401B41F28831884201D9032061E6E3
:101370002D4868300068C0F340000028EFD1012FED
:1013800007D129483830006820F08050264938318C
:10139000086000BFA069002845D02348006800F01D
:1013A0000C0008285DD0A069022845D100201F4903
:1013B0000866FFF71FFC054606E0FFF71BFC401B15
:1013C000022801D9032035E6174808380068C0F321
:1013D00040600028F1D1D4E907010843616A40EA7E
:1013E00081110122A06AC2EB500041EA00412C2089
:1013F000005D41EA00600C49091F086001200B49AB
:101400000866FFF7F7FB054606E0FFF7F3FB401B16
:10141000022801D903200DE6034808380068C0F30C
:1014200040600028F1D049E00838024000004742FF
:10143000800E474200700040002021490866FFF7F7
:10144000D9FB054606E0FFF7D5FB401B022801D972
:101450000320EFE51B480068C0F340600028F2D18C
:101460002CE0A069012800D1E4E51648001D0668BB
:10147000A069012820D006F48001E06981421BD1D7
:1014800006F03F01206A814216D147F6C070304015
:10149000616AB0EB811F0FD106F440310122A06ACE
:1014A000C2EB5000B1EB004F06D106F070612C206A
:1014B000005DB1EB006F01D00120BBE50020B9E574
:1014C000000047420038024070B504462546681EB9
:1014D000B0F1807F01D301200FE0681E4FF0E021C2
:1014E00048610F214FF0FF3001F072F900204FF0FA
:1014F000E021886107200861002070BD704708B5B1
:10150000014600BF91F83C00012801D1022008BD2E
:10151000012081F83C0000BF91F83D0021280ED148
:1015200000BF00BF0A68143252E8002F42F080006A
:101530000A68143242E80003002BF3D100BF91F88F
:101540003E00222839D100BF0020009008680068C2
:10155000009008684068009000BF00BF086970B143
:1015600000BF00BF0A680C3252E8002F42F48070BE
:101570000A680C3242E80003002BF3D100BF00BF21
:1015800000BF0A68143252E8002F42F001000A68D6
:10159000143242E80003002BF3D100BF00BF00BFAC
:1015A0000A68143252E8002F42F040000A681432F0
:1015B00042E80003002BF3D100BF00BF002081F8F8
:1015C0003C0000BF00BFA2E770B5044600252068BC
:1015D0004069C0F3C01594F83D00212817D1B5B17A
:1015E00000BF00BF2168143151E8001F21F08000C6
:1015F0002168143141E80002002AF3D100BF606B7A
:1016000010B1606BFFF7B7F8204600F0F5FD2068D9
:101610004069C0F3801594F83E00222817D1B5B177
:1016200000BF00BF2168143151E8001F21F04000C5
:101630002168143141E80002002AF3D100BFA06BF9
:1016400010B1A06BFFF797F8204600F08FFD002047
:1016500070BD70472DE9F84F044620680568206882
:10166000C668206847694FF00009CA4605F00F09AF
:10167000B9F1000F0AD105F0200038B106F02000C2
:1016800020B1204600F0CBFDBDE8F88FB9F1000F86
:101690007CD007F0010018B906F49070002875D0CE
:1016A00005F0010030B106F4807018B1206C40F0F4
:1016B0000100206405F0040030B107F0010018B10A
:1016C000206C40F00200206405F0020030B107F009
:1016D000010018B1206C40F00400206405F00800FF
:1016E00048B106F0200010B907F0010018B1206CD5
:1016F00040F008002064206C002846D005F020004F
:1017000028B106F0200010B1204600F088FD2068C6
:101710004069C0F3801A206C00F0080010B9BAF1DB
:10172000000F2DD0204600F021FD2068406900F018
:101730004000402820D100BF00BF2168143151E88B
:10174000001F21F040002168143141E80002002A06
:10175000F3D100BFA06B50B17548A16B0865A06BB9
:10176000FFF75FF888B1A06B016D88470DE0204658
:10177000FFF76FFF09E009E02046FFF76AFF04E08A
:101780002046FFF766FF002020647DE7206B0128DC
:1017900076D105F01000002872D006F01000002865
:1017A000FAD000BF002000902068006800902068F8
:1017B0004068009000BF00BF2068406900F0400012
:1017C00040285ED1A06B006840681FFA80F8B8F12D
:1017D000000F54D0A08D404551DDA4F82E80A06BA1
:1017E000C069B0F5807F43D000BF00BF21680C31D5
:1017F00051E8001F21F4807021680C3141E800029B
:10180000002AF3D100BF00BF00BF2168143151E8A6
:10181000001F21F001002168143141E80002002A74
:10182000F3D100BF00BF00BF2168143151E8001F91
:1018300021F040002168143141E80002002AF3D170
:1018400000BF202084F83E000020206300BF00BFBE
:1018500021680C3151E8001F21F0100021680C3183
:1018600041E80002002AF3D100BFA06BFEF783FF1E
:10187000A08DE28D801A81B22046FFF73FFE03E77C
:1018800040E0A08DE18D401A1FFA80F8E08DC0B3D2
:10189000B8F1000F35D000BF00BF21680C3151E80E
:1018A000001F21F4907021680C3141E80002002AE9
:1018B000F3D100BF00BF00BF2168143151E8001F01
:1018C00021F001002168143141E80002002AF3D11F
:1018D00000BF202084F83E000020206300BF00BF2E
:1018E00021680C3151E8001F21F0100021680C31F3
:1018F00041E80002002AF3D100BF41462046FFF72D
:10190000FDFDC1E605F0800030B106F0800018B1A1
:10191000204600F07FFEB7E605F0400030B106F04B
:10192000400018B1204600F057FCADE600BFABE622
:101930003920000810B504460CB9012010BDA0697B
:1019400000B100E000BF94F83D0028B9002084F801
:101950003C00204600F028F8242084F83D00206850
:10196000C06820F400502168C860204600F0D4FC14
:101970002068006920F4904021680861206840696F
:1019800020F02A00216848612068C06840F40050B7
:101990002168C86000202064202084F83D0084F87D
:1019A0003E000020CAE7000010B586B004461421AE
:1019B00001A8FEF768FD8E49206888427ED100BFED
:1019C000002000908B48006840F48010894908602E
:1019D0000846006800F48010009000BF00BF00BF00
:1019E0000020009083481038006840F004008149CE
:1019F000103908600846006800F00400009000BF3D
:101A000000BF00BF002000900846006840F00800BA
:101A100008600846006800F00800009000BF00BFA2
:101A2000881401900220029000200390032004906B
:101A30000820059001A97048FEF7DCFF0420019002
:101A400002200290002003900320049008200590BB
:101A500001A96A48FEF7CEFF69486A490860C005D7
:101A60004860002167488160C1604FF48061016176
:101A7000002141618161C16101624162FEF7E6FEC0
:101A800008B1FEF775FE00BF5E48A063846300BF27
:101A90005B48A8305C4908604FF000604860402116
:101AA000594881600021C1604FF4806101610021CB
:101AB00041618161C1610162416200E017E0FEF7AE
:101AC000C5FE08B1FEF754FE00BF4F486063846353
:101AD00000BF002211463520FFF716F93520FFF729
:101AE00003F92068C06840F010002168C8604749C9
:101AF000206888427AD100BF002000903D48001D38
:101B0000006840F020003B49091D08600846006855
:101B100000F02000009000BF00BF00BF0020009038
:101B200034481038006840F0040032491039086029
:101B30000846006800F00400009000BF00BFC0200D
:101B400001900220029000200390032004900820BE
:101B5000059001A92848FEF74DFF2D482D49086042
:101B60008005486000212B488160C1604FF480618E
:101B70000161002141618161C16101624162FEF741
:101B800065FE08B1FEF7F4FD00BF2248A063846340
:101B900000BF1F487830204908604FF0206048603F
:101BA00040211D4881600021C1604FF480610161C6
:101BB000002141618161C16101624162FEF746FE1F
:101BC00008B1FEF7D5FD00BF13486063846300BF12
:101BD000002211464720FFF797F84720FFF784F8C7
:101BE0002068C06840F010002168C86006B010BDD1
:101BF000005000404038024000080240000C024003
:101C000010600240A40000200401002000140140E4
:101C100028640240A80100200802002070B5044694
:101C20000D46164694F83E00202816D105B10EB98F
:101C3000012070BD00BF94F83C00012801D10220B2
:101C4000F7E7012084F83C0000BF00202063324603
:101C50002946204600F076FCEBE70220E9E77047D2
:101C600070472DE9F84F04460E46174699464FF047
:101C7000000A94F83D0020285AD106B117B9012076
:101C8000BDE8F88F00BF94F83C00012801D1022084
:101C9000F6E7012084F83C0000BF002020642120EA
:101CA00084F83D00FEF7A6FF8246A784E784A0687B
:101CB000B0F5805F04D1206910B90025B04602E07C
:101CC00035464FF0000800BF002084F83C0000BFFC
:101CD0001BE05346002280212046CDF8009000F002
:101CE000C9FC08B10320CBE745B9B8F80000C0F340
:101CF00008002168486008F1020803E0287821689C
:101D000048606D1CE08C401EE084E08C0028E0D12F
:101D10005346002240212046CDF8009000F0AAFC56
:101D200008B10320ACE7202084F83D000020A7E79D
:101D30000220A5E7704700BFFEE738B50246002342
:101D4000009300200FE00B780124844023404BB126
:101D50009DF80030C0F107050124AC402343DBB2FD
:101D60008DF80030401C0828EDDB9DF80030137022
:101D700038BD000008B500BF002000900E48006884
:101D800040F400100C4908600846006800F4001098
:101D9000009000BF00BF00BF002000900846006810
:101DA00040F4800008600846006800F4800000905D
:101DB00000BF00BF08BD00003038024000B587B04A
:101DC000142102A8FEF75FFB00BF00200190174816
:101DD000006840F00400154908600846006800F0FB
:101DE0000400019000BF00BF00BF00200190084622
:101DF000006840F0080008600846006800F008002D
:101E0000019000BF00BF0022C9140948FEF7ECFE94
:101E10004FF4006002900120039000200490059090
:101E200002A90348FEF7E6FD07B000BD30380240C6
:101E30000008024010B50B480B4908604FF4E13030
:101E40004860002108488160C16001610C21416146
:101E500000218161C161FFF76DFD08B1FEF788FCCB
:101E600010BD0000005000406000002010B50B487D
:101E70000B4908604FF4E130486000210848816058
:101E8000C16001610C21416100218161C161FFF7E5
:101E900051FD08B1FEF76CFC10BD000000140140BC
:101EA0006401002000BFFEE700BFFEE770477047F7
:101EB00010B5FEF7A5FE10BD00B593B0302107A800
:101EC000FEF7E1FA142102A8FEF7DDFA00BF0020B8
:101ED00001902548006840F080502349086008467A
:101EE000006800F08050019000BF00BF00BF0020DC
:101EF00001901E48006840F480401C490860084674
:101F0000006800F48040019000BF00BF02200790ED
:101F100001200A9010200B9002200D9000210E91BC
:101F200008210F91A82110910221119104211291F1
:101F300007A8FFF77BF808B1FEF71AFC0F20029004
:101F400002200390002004904FF4A05005904FF41D
:101F500080500690052102A8FEF728FF08B1FEF781
:101F600007FC13B000BD0000403802400070004084
:101F70000348006840F470000149086070470000A1
:101F800088ED00E008B5294800680068C0F3C0008B
:101F9000B8B100BF0020009024480068006800909D
:101FA000224800684068009000BF00BF4FF4807175
:101FB0001F48FEF768FA4FF480721D491B48FFF76F
:101FC0002DFE1A4800680068C0F3001050B300BF2F
:101FD00000200090154800680068009013480068D1
:101FE0004068009000BF00BF1048FFF7EDFA104AAC
:101FF00010490E4800F0EAFD0C48FFF780FA0B4844
:102000000068C06840F0100008490968C8604FF4D3
:1020100080710748FEF737FA4FF48072044903488D
:10202000FFF7FCFD0148FFF715FB08BD600000202D
:1020300068030020800A002070B50546AC6B0020C4
:10204000E085E0842046FFF704FB70BD70B50646CE
:102050000025B46B20684069C0F3C01594F83D00BA
:10206000212805D125B10020E084204600F0C4F8E5
:1020700020684069C0F3801594F83E00222805D1FD
:1020800025B10020E085204600F070F8206C40F07B
:10209000100020642046FFF7DCFA70BD70B50546DD
:1020A000AC6B2868006800F48070002842D1E0859D
:1020B00000BF00BF21680C3151E8001F21F480707F
:1020C00021680C3141E80002002AF3D100BF00BFB3
:1020D00000BF2168143151E8001F21F00100216880
:1020E000143141E80002002AF3D100BF00BF00BF55
:1020F0002168143151E8001F21F04000216814319B
:1021000041E80002002AF3D100BF202084F83E00FD
:10211000206B01280ED100BF00BF21680C3151E8AF
:10212000001F21F0100021680C3141E80002002A54
:10213000F3D100BF206B012804D1A18D2046FFF709
:10214000DDF902E02046FFF78AFD70BD70B5054657
:10215000AC6B206B012805D1A08D41082046FFF70C
:10216000CDF902E02046FFF77BFD70BD00BF00BF48
:1021700002680C3252E8002F22F4907102680C328F
:1021800042E80013002BF3D100BF00BF00BF02687C
:10219000143252E8002F22F001010268143242E8A2
:1021A0000013002BF3D100BF016B01290ED100BF3A
:1021B00000BF02680C3252E8002F22F010010268C2
:1021C0000C3242E80013002BF3D100BF202180F82D
:1021D0003E1000210163704710B504462068C068B6
:1021E00020F040002168C860202084F83D0020468F
:1021F000FFF7A0FD002010BD00BF00BF02680C3239
:1022000052E8002F22F0C00102680C3242E80013AD
:10221000002BF3D100BF202180F83D107047F8B5A6
:10222000044694F83E00222873D1A068B0F5805F80
:102230000CD1206950B90025A66A20684068C0F317
:1022400008003080A06A801CA06215E0A56A002604
:10225000A068B0F5805F03D0A06828B9206918B9DC
:1022600020684068287004E02068406800F07F0023
:102270002870A06A401CA062E08D401E80B2E085FC
:10228000002844D12068C06820F020002168C86080
:102290002068C06820F480702168C86020684069A8
:1022A00020F0010021684861202084F83E00206B66
:1022B000012826D10020206300BF00BF21680C3117
:1022C00051E8001F21F0100021680C3141E80002A4
:1022D000002AF3D100BF2068006800F01000102829
:1022E0000AD100BF0020009020680068009020689C
:1022F0004068009000BF00BFA18D2046FFF7FEF8A8
:1023000002E02046FFF7ABFC0020F8BD01E0002012
:10231000FBE70220F9E700002DE9F84F04462068AA
:10232000006920F44050E168084321680861216990
:10233000A068084361690843E16908430090206888
:10234000C06849F20C618843009908432168C8605D
:102350002068406920F44070A16908432168486101
:1023600076492068884203D075492068884203D1A5
:10237000FEF7F4FD814602E0FEF7E0FD8146E069EC
:10238000B0F5004F6CD102206168A0FB01500346FC
:102390001920A9FB007001462A463846FDF764FF64
:1023A0006421B0FBF1F04FEA001A02206168A0FB43
:1023B00001510B461920A9FB00712A463846FDF74A
:1023C00053FF834602206168A0FB01500346192099
:1023D000A9FB00712A463846FDF746FF6421B0FB91
:1023E000F1F000EBC00101EB0010ABEB80003221FB
:1023F00001EBC0006421B0FBF1F000F0F8000AEB43
:10240000400A02206168A0FB015003461920A9FB85
:10241000007001462A463846FDF726FF8346022013
:102420006168A0FB015003461920A9FB00712A46F0
:102430003846FDF719FF6421B0FBF1F000EBC00155
:1024400001EB0010ABEB8000322101EBC0006421F6
:10245000B0FBF1F000F007005044216888606AE0AA
:1024600004206168A0FB015003461920A9FB0070FD
:1024700001462A463846FDF7F7FE82460420616889
:10248000A0FB015003461920A9FB007001462A4613
:102490003846FDF7E9FE6421B0FBF1F000EBC00126
:1024A00001EB0010AAEB8000322101EB0010642147
:1024B000B0FBF1F000F0F00A04206168A0FB0170AD
:1024C00003461920A9FB00513A462846FDF7CCFEE9
:1024D0006421B0FBF1F00AEB001A04206168A0FB54
:1024E00001510B461920A9FB00712A463846FDF719
:1024F000BBFE834604206168A0FB015003461920FF
:10250000A9FB007001462A463846FDF7ADFE64215E
:10251000B0FBF1F000EBC00101EB0010ABEB800071
:10252000322101EB00106421B0FBF1F000F00F004C
:10253000504421688860BDE8F88F00000010014019
:102540000014014077B581B0044615460298A06298
:10255000A58500202064222084F83E002A48A16B33
:10256000C8632A48A16B08642948A16BC86400208D
:10257000A16B086502AE32682368191D2B46A06B5B
:10258000FEF7DAF900BF0020009020680068009094
:1025900020684068009000BF00BF00BF002084F8A2
:1025A0003C0000BF206970B100BF00BF21680C3142
:1025B00051E8001F41F4807021680C3141E80002AD
:1025C000002AF3D100BF00BF00BF2168143151E8D9
:1025D000001F41F001002168143141E80002002A87
:1025E000F3D100BF00BF00BF2168143151E8001FC4
:1025F00041F040002168143141E80002002AF3D183
:1026000000BF002004B070BD9D2000084D210008CF
:102610004D200008014691F83D00212828D1886806
:10262000B0F5805F0BD1086948B90A6A1088C0F319
:1026300008000B685860086A801C086205E00B6A95
:10264000581C086218780B685860C88C401E80B20D
:10265000C88458B90868C06820F080000B68D8604A
:102660000868C06840F040000B68D86000207047E0
:102670000220FCE72DE9F04104460D461746984636
:10268000069E34E0701C88B32EB1FEF7B3FAA0EBBF
:102690000800B0422BD900BF00BF21680C3151E8BF
:1026A000001F21F4D07021680C3141E80002002A9B
:1026B000F3D100BF00BF00BF2168143151E8001FF3
:1026C00021F001002168143141E80002002AF3D111
:1026D00000BF202084F83D0084F83E0000BF0020A9
:1026E00084F83C0000BF0320BDE8F081FFE72068CC
:1026F00000682840A84201D1012000E00020B84233
:10270000C0D00020F0E7000008B529480068006844
:10271000C0F3C000B8B100BF00200090244800689A
:1027200000680090224800684068009000BF00BF29
:102730004FF496711F48FDF7A6FE4FF496721D499F
:102740001B48FFF76BFA1A4800680068C0F30010D6
:1027500050B300BF0020009015480068006800904A
:10276000134800684068009000BF00BF1048FEF7A3
:102770002BFF104A10490E4800F070FA0C48FEF783
:10278000BEFE0B480068C06840F0100008490968A8
:10279000C8604FF496710748FDF775FE4FF49672C6
:1027A00004490348FFF73AFA0148FEF753FF08BD12
:1027B00064010020A00A00201814002000BFFEE7DA
:1027C00002480068C0F30220704700000CED00E0F2
:1027D00010B5002804DB0A07130E054A135406E05F
:1027E0000A07140E034A00F00F031B1FD45410BD38
:1027F00000E400E018ED00E030B58BB004460D4673
:102800000020089009900A9020216846FDF73BFEC1
:102810004D48007860B94DA12046FDF79CFD28B1D8
:1028200001204949087000204A4908700BB030BDAA
:1028300045480078042879D12078AA2870D160789A
:10284000FF286DD194F8FF00552869D194F8000154
:10285000FF2865D1FE212046FDF7ADFE94F8FE105D
:10286000884255D1D4F8020008909DED080A3A48F4
:1028700080ED000A394800210160416081606820D4
:1028800036490870012048700420488008463249C3
:102890000968416004213048FDF7C6FE2F490881D0
:1028A000162088722E480068401C2D490860642359
:1028B0000B222A492B48FFF7D4F90520FEF786F8AA
:1028C0002948002101604160816068202649087024
:1028D00002204870F0204880F02204F10E012248C6
:1028E000001DFDF769FD4AF655201F49A1F8F400C7
:1028F000162081F8F6001A480068401C1849086044
:102900004FF47A73F72218491648FFF7AAF98DE7B2
:1029100016480068401C1549086087E706E0FFE795
:1029200012480068401C114908607FE710A120464A
:10293000FDF711FD30B104480078022802D10320D0
:102940000149087000BF71E74000002078575231FC
:102950003478780041000020000000203814002066
:1029600044000020600000204414002048000020A3
:102970006D6D7744656D6F0010B52248007800B921
:1029800010BD20480078042800D1F9E71D480078E0
:10299000012819D11C491D4A127851F82200FDF76F
:1029A000ECFC84B21848194A127850F822106423BB
:1029B00022461748FFF755F9FEF71CF9154908603C
:1029C0000220104908701AE00E480078022802D14F
:1029D000FEF710F913E00B48007803280FD10B48DD
:1029E0000078401C09490870084600780D2803DB70
:1029F00004200449087002E001200249087000BF69
:102A0000BEE70000400000200C0000204100002034
:102A1000640100204C00002070B504460E461546A7
:102A2000A068401CE168884203D301202075801E05
:102A300070BD2069A84202D24FF0FF30F8E7236949
:102A40002268A16902FB03102A463146FDF7B4FC57
:102A50002168E06940F821502068401C2060E1684E
:102A60002068B0FBF1F201FB12002060A068401C5E
:102A7000A0600020DCE72DE9F04104460D46164633
:102A80001F46DDF818800CB105B10EB9BDE8F08124
:102A900020212046FDF7F7FCA561E661C4F80C8013
:102AA0002761002020606060A06000BFEEE72DE994
:102AB000F04104460D460026A06810B90020BDE88C
:102AC000F0816168E06950F8216023696268A0695B
:102AD00002FB030132462846FDF76EFC2769636856
:102AE000A26903FB07203946FDF7ABFC00206268B2
:102AF000E16941F82200A068401EA0606068401CA7
:102B00006060E1686068B0FBF1F201FB1200606098
:102B10003046D4E7FEF780F8FFF7CEF9FFF74EF91D
:102B200000224FF400611648FEF75EF8FFF722F925
:102B3000FFF780F9FFF79AF900F024F800F05AF84F
:102B400000F064F800F0BEF800224FF400610C4879
:102B5000FEF74AF84FF47A70FDF738FF0122D102F0
:102B60000748FEF741F84FF47A70FDF72FFF05E0B4
:102B700000F01AF800F05CF8FFF7FEFEF8E700003E
:102B80000008024008B506204FF48073034A044948
:102B900000900448FFF76FFF08BD0000680A00209E
:102BA00068040020800A002010B5C0B000244FF453
:102BB00080716846FDF767FC69460348FFF777FFB9
:102BC000044640B010BD0000800A00202DE9F0410D
:102BD00004460D46164600272869A16B0968496816
:102BE000471A3A4631460248FFF716FFBDE8F08122
:102BF000800A002010B54FF4807202490248FFF7A6
:102C00000DF810BD680300206000002008B5062004
:102C10004FF49673034A044900900448FFF72BFFD2
:102C200008BD000000140020F80C0020181400203B
:102C300010B500244FF496710648FDF724FC0549B1
:102C40000548FFF734FF04461CB121460148FFF751
:102C5000D3FD10BD3C150020181400202DE9F047CD
:102C600006460F4615464FF000080024A146386975
:102C7000B16B09684968A0EB01084FF496710F48E1
:102C8000FDF701FC00BF0FE0002C06DD285D0D28DC
:102C900003D1601E285C0A2805D0285D074901F889
:102CA000090009F10109641C4445EDDB4246034972
:102CB0000348FFF7B1FEBDE8F0870000CC0B002011
:102CC0001814002010B54FF4967202490248FEF71E
:102CD000A5FF10BDA00A0020640100204FF0407045
:102CE000E1EE100A704700C1814001C0804101C07F
:102CF000804100C1814001C0804100C1814000C1CC
:102D0000814001C0804101C0804100C1814000C1BB
:102D1000814001C0804100C1814001C0804101C0AB
:102D2000804100C1814001C0804100C1814000C19B
:102D3000814001C0804100C1814001C0804101C08B
:102D4000804100C1814000C1814001C0804101C07B
:102D5000804100C1814001C0804100C1814000C16B
:102D6000814001C0804101C0804100C1814000C15B
:102D7000814001C0804100C1814001C0804101C04B
:102D8000804100C1814000C1814001C0804101C03B
:102D9000804100C1814001C0804100C1814000C12B
:102DA000814001C0804100C1814001C0804101C01B
:102DB000804100C1814001C0804100C1814000C10B
:102DC000814001C0804101C0804100C1814000C1FB
:102DD000814001C0804100C1814001C0804101C0EB
:102DE000804100C1814000C0C101C30302C2C606C8
:102DF00007C705C5C404CC0C0DCD0FCFCE0E0ACA33
:102E0000CB0BC90908C8D81819D91BDBDA1A1EDE82
:102E1000DF1FDD1D1CDC14D4D515D71716D6D21232
:102E200013D311D1D010F03031F133F3F23236F642
:102E3000F737F53534F43CFCFD3DFF3F3EFEFA3AF2
:102E40003BFB39F9F83828E8E929EB2B2AEAEE2E82
:102E50002FEF2DEDEC2CE42425E527E7E62622E2F2
:102E6000E323E12120E0A06061A163A3A26266A642
:102E7000A767A56564A46CACAD6DAF6F6EAEAA6AB2
:102E80006BAB69A9A86878B8B979BB7B7ABABE7E02
:102E90007FBF7DBDBC7CB47475B577B7B67672B2B2
:102EA000B373B17170B05090915193535292965642
:102EB0005797559594549C5C5D9D5F9F9E5E5A9A72
:102EC0009B5B99595898884849894B8B8A4A4E8E02
:102ED0008F4F8D4D4C8C4484854587474686824272
:102EE0004383418180400006101600061016000042
:102EF00000000000000001020304060708090000AA
:102F000000000102030400006672616D654366679C
:102F1000203020302031203020353030203120301A
:102F20000D0A00006368616E6E656C436667203849
:102F3000203120300D0A000052616E67654C696DCA
:102F40006974436667203120302E312031352E30B0
:102F50000D0A000070726F66696C65436667203009
:102F600020373720372037203231322E382030209A
:102F700030202031382E333220312031303234208D
:102F800035303030203020302034300D0A00000041
:102F90006775694D6F6E69746F7220312020203122
:102FA000203020203020302020310D0A0000000089
:102FB00063686972704366672030203020302030AB
:102FC00020302030203020310D0A0000616463621F
:102FD000756643666720302031203020310D0A00AD
:102FE000616463436667203220310D0A00000000EF
:102FF000646665446174614F75747075744D6F6477
:103000006520310D0A00000063616C6962446352FF
:10301000616E67655369672030202D352035203378
:10302000320D0A00666C7573684366670D0A00000E
:1030300073656E736F7253746F700D0A0000000039
:1030400073656E736F7253746172740D0A000000C1
:10305000703000080000002060000000C40100087B
:10306000D030000860000020682E0000E001000859
:1030700000000000000000000000000030300008E8
:1030800024300008F02F0008242F0008E02F00084B
:10309000CC2F0008542F0008B02F0008082F00087C
:1030A00008300008902F0008382F00084030000832
:1030B0000000000000000000000000000000000010
:1030C0000000000010000000010000000024F400D7
:040000050800018965
:00000001FF
