:020000040800F2
:100000003864002049010008956200089B4F0008F1
:1000100091620008511B0008D57100080000000023
:1000200000000000000000000000000091660008D1
:10003000B527000800000000BD63000891690008B2
:100040006301000863010008630100086301000800
:1000500063010008630100086301000863010008F0
:1000600063010008630100086301000863010008E0
:100070006301000863010008112200082122000822
:1000800063010008630100086301000863010008C0
:10009000630100086301000863010008FD2A0008ED
:1000A00063010008630100086301000863010008A0
:1000B0006301000863010008630100086301000890
:1000C0006301000863010008630100086301000880
:1000D000630100083571000863010008630100082E
:1000E0006301000863010008630100086301000860
:1000F0006301000863010008630100086301000850
:10010000630100086301000863010008630100083F
:10011000630100086301000863010008630100082F
:10012000630100086301000863010008630100081F
:10013000DFF810D000F0D6FC00480047C98800085E
:10014000AFF3008038640020064880470648004727
:10015000FEE7FEE7FEE7FEE7FEE7FEE7FEE7FEE777
:10016000FEE7FEE7E969000831010008202A04DB08
:10017000203A21FA02F00021704721FA02F3D04020
:10018000C2F12002914008431946704740EA01033A
:100190009B0703D009E008C9121F08C0042AFAD23D
:1001A00003E011F8013B00F8013B521EF9D2704701
:1001B000D2B201E000F8012B491EFBD270470022A9
:1001C000F6E710B513460A4604461946FFF7F0FF56
:1001D000204610BD421C10F8011B0029FBD1801ADB
:1001E000704730B505460020034600E05B1C934293
:1001F00005D2EC5CC85C201A01D1002CF6D130BDD0
:10020000F0B480EA0102D40F4200B2EB410F02D2F7
:100210000246084611464A0042D0C30DDDB2C1F382
:10022000C752AD1A202D35DAC1F3160141F4000290
:1002300004B15242C5F1200602FA06F12A411044E7
:10024000B3EBD05F23D0C4B1012DA0EBC35009DCC8
:10025000F0BC4FF0004202EAC352DBB200F50000EE
:1002600000F09DBB400000F1807000EBC350A0F196
:10027000807040EAD170490009E0490841EAC07144
:10028000A0EBC35000F50000400800EBC350F0BCE9
:1002900000F07CBB6142012202EB4101001BF6E74A
:1002A000F0BC704781F00041AAE780F00040A7E76A
:1002B00080EA010210B502F00043400022D04A005B
:1002C0001FD0010E01EB1261C0F35600C2F35602BB
:1002D00040F4000042F40002A0FB022000047F3939
:1002E000140400D0401C50EA124001D44000491EC2
:1002F000C2B20C0604EBD010401C4008802A02D089
:1003000003E0002010BD20F00100002900DA0020E9
:10031000184310BD30B480EA010202F0004530F00D
:10032000004221F0004013D090B1C30DD40DC2F3B0
:100330001601C0F31600E41A41F4000140F4000273
:100340007D34914201D3641C00E04900002C02DAA4
:1003500030BC002070474FF400000023914201D3CD
:10036000891A034340084FEA4101F7D151B1914244
:1003700002D14FF0004105E002D24FF0010101E04F
:100380006FF0010103EBC450284430BC00F0FEBA0A
:100390002DE9FE4F804681EA0300C00F0C46009015
:1003A00021F0004123F00045B8EB0200A94105D23D
:1003B0004046214690461C460B46024623F000402C
:1003C000104347D0270DC7F30A00C3F30A51029028
:1003D000401A019040286BDAC3F3130040F4801BED
:1003E0000098924620B10023D2EB030A63EB0B0B7B
:1003F00001985946C0F14002504600F058FA0646AE
:100400000D4650465946019A00F060FA10EB08007C
:100410006141002487EA115284EAE7731A4340D00D
:10042000009A62B3019A012A4FEA075215DC001BB9
:1004300061EB02014FF0004202EA0752CDE90042AF
:10044000001C41F5801132462B4600F0E5FA03B05E
:10045000BDE8F08F40462146F9E7001B61EB020141
:10046000001C41F5801300185B412018A2F500170D
:1004700047EB030140EAD570B6196D4111E06D08F4
:100480004FEA360645EAC0754FEA0752001B61EB9A
:100490000201001C41F5801149084FEA30000019A3
:1004A000514132462B4603B0BDE8F04F00F0A5BAEB
:1004B0000098012240000023D0EB020263EBE073BE
:1004C000009821464FEAE074B8EB000061EB0401AC
:1004D000E9E783F000435BE781F0004158E72DE94D
:1004E000FE4F81EA030404F0004421F0004100942F
:1004F0004FF0000B23F0004350EA01045ED052EAB3
:1005000003045BD0C3F30A54C1F30A552C44A4F28C
:10051000F3340194A0FB0254C1F3130141F48011A0
:10052000C3F3130343F4801301FB024400FB034EA7
:10053000840A970A44EA815447EA8357A4FB076870
:1005400002958D0A05FB07854FEA932C04FB0C549A
:100550002705029D4FEA065847EA1637B5EB08050E
:100560006EEB070C870E920E47EA811742EA831260
:10057000A7FB0201B6EB0B0164EB00042B0D43EA71
:100580000C335E1844EB1C50DA465146E7FB02017F
:10059000C5F313044FEA0B3343EA14534FEA043212
:1005A000019C43EA0603A4F10C040294009CCDE9EB
:1005B00000B400F031FA03B0BDE8F08F002001462E
:1005C000F9E72DE9F04D81EA030404F0004B21F036
:1005D000004514464FF0000A23F0004150EA05029E
:1005E00020D054EA01021DD0C5F30A570246C5F3D4
:1005F0001303C1F31300C1F30A5640F4801543F40A
:100600008013A7EB0608101BD64608F2FD3873EBE3
:10061000050002D308F1010801E092185B41B8F12E
:10062000000F03DA00200146BDE8F08D00204FF4F2
:100630008011064684460EE0171B73EB050705D3B1
:10064000121B63EB050306434CEA010C49084FEA11
:10065000300092185B4150EA0107EDD152EA0300E5
:1006600012D082EA040083EA0501084305D0101B7A
:10067000AB4106D20122002306E000224FF00043E6
:1006800002E06FF0010253101AEB06004CEB085128
:1006900010EB0A0041EB0B01BDE8F04D00F0ADB9E5
:1006A000C10F80EAE0700844CA079623002100F0D9
:1006B00076B996230022114600F071B90EB540F2CA
:1006C000334102910021CDE900110A460B4600F0AA
:1006D000A3F903B000BD00F0004220F00040C10DBE
:1006E000C0F3160040F400007F2901DA00207047B3
:1006F000962903DCC1F19601C84001E09639884093
:10070000002AF4D04042704720F00040C10DC0F3F1
:10071000160040F400007F2901DA00207047962976
:1007200003DCC1F19601C840704796398840704794
:10073000C1F30A5210B5C1F3130140F2FF3341F483
:1007400080119A4201DA002010BD40F233439A42F0
:10075000A2F2334203DC5242FFF708FD10BD904085
:1007600010BD00F0004230F000400AD0C10D01F58C
:100770006071C0F3160042EA0151C20840071143FC
:10078000704700200146704730B5041E71F1000427
:1007900004DB4FF00044404264EB0101141E73F18E
:1007A000000405DB1C464FF00043524263EB040398
:1007B0008B4208BF824230BD30B5041E71F1000487
:1007C00004DB4FF00044404264EB0101141E73F15E
:1007D000000405DB1C464FF00043524263EB040368
:1007E000994208BF904230BD01F0004330B421F07F
:1007F000004150EA010206D00A0DA2F56072C1F371
:100800001301002A02DC30BC00207047440F44EA88
:10081000C104C100E01830BC00EBC25000F0B6B813
:1008200030B50B46014600202022012409E021FAC0
:1008300002F59D4205D303FA02F5491B04FA02F5BD
:100840002844151EA2F10102F1DC30BD2DE9F05F54
:100850000546002092469B4688460646814640242F
:100860001BE02846414647462246FFF77FFC534699
:100870005A46C01A914110D311461846224600F03C
:1008800016F82D1A67EB01084F4622460120002179
:1008900000F00DF817EB00094E41201EA4F10104F1
:1008A000DFDC484631462A464346BDE8F09F202A11
:1008B00004DB203A00FA02F1002070479140C2F1B7
:1008C000200320FA03F3194390407047202A06DBE7
:1008D000CB17203A41FA02F043EAE07306E041FA0E
:1008E00002F3D040C2F120029140084319467047FC
:1008F0000FB4002300B589B00CA900910B996FF0DB
:100900000042CB601E4B06931E4B07930423CDE998
:1009100001321D4A089202466B46002000F08EF913
:1009200009B05DF814FB70B586B006464FF0FF3095
:100930000091CDE90101002015460C460490324695
:10094000694604A8FFF7D4FF02460498211825B190
:1009500008B1084600E020462860049800280DD021
:10096000002A02DD0098884208D0081B0094CDE9D7
:1009700001043246694604A8FFF7BAFF06B070BD0D
:10098000750E0008930E0008090B00080029A8BF87
:100990007047401C490008BF20F00100704710B4A8
:1009A000B0FA80FC00FA0CF050EA010404BF10BC5D
:1009B000704749B1CCF1200421FA04F411FA0CF18A
:1009C00018BF012121430843A3EB0C01CB1D4FEAC3
:1009D00000614FEA102042BF002010BC704700EBBE
:1009E000C35010440029A4BF10BC7047401C4900EC
:1009F00008BF20F0010010BC704710B5141E73F141
:100A0000000408DA401C41F1000192185B411A43CE
:100A100001D120F0010010BD2DE9F04D92469B461A
:100A200011B1B1FA81F202E0B0FA80F220329046C0
:100A3000FFF73DFF04460F4640EA0A0041EA0B017A
:100A400053465A46084313D0114653EA010019D0C1
:100A5000C8F140025046FFF789FB05460E46504656
:100A600059464246FFF723FF084305D0012004E022
:100A700020463946BDE8F08D0020054346EAE07681
:100A80002C4337430A986305E40AA0EB08000022D0
:100A9000FD0A44EA47540A3002D500200146E9E73E
:100AA000010510196941DDE9084500196941BDE8F2
:100AB000F04DA2E7C1F30A52C1F3130140F2FF3334
:100AC00041F480119A4202DA00200146704740F258
:100AD00033439A42A2F2334202DC5242FFF746BB52
:100AE000FFF7E5BE064C074D06E0E06840F0010365
:100AF00094E8070098471034AC42F6D3FFF71CFB8C
:100B00008C9A0008AC9A0008C0B24FF4F05100F083
:100B1000D1B900002DE9FF4F087883B09946FF282E
:100B200005D0491C2D2804D00024002008E0002016
:100B30000BE00124F9E700EB800003EB4000491CC7
:100B40000B78FF2BF7D104B14042002302931478B5
:100B500019461D462D2C01D02B2C04D1521C2D2CB6
:100B600013D000240294AA461478FF2C0FD00A2533
:100B7000A3FB057801FB05814FF0000C03FB0C1172
:100B8000521CE3194AEB0101EEE70124EAE7814434
:100B900053EA010002D019F5C87F06DA0398002154
:100BA000C0E9001107B0BDE8F08F0025AE4E2F461A
:100BB000DFF8B882184600F091F9CDE90001B9F1EB
:100BC000000002DAC9F1000400E004460023A74A4D
:100BD0001AEB030B42EB045A12E0E00707D02A4657
:100BE000334638464146FFF77AFC074688462A4690
:100BF000334610461946FFF772FC05460E46641050
:100C0000002CEAD1DDE90001B9F1000F5A46534644
:100C100006DAFFF7D6FC3A464346FFF7D2FC05E07A
:100C2000FFF75DFC3A464346FFF759FC029A0AB1CA
:100C300081F00041039AC2E90001B3E72DE9FF4FBB
:100C40001F468DB0D7E901464FF0FF382E204546AC
:100C50004FF000090B90B9696D1C0E988847396AEE
:100C6000824688470028F6D1BAF1FF3F0AD024F423
:100C7000D064002E11DDBAF12B0F08D0BAF12D0F80
:100C80000BD102E0404611B08DE744F48064B969AD
:100C90006D1C0E9888478246761E6946600501D510
:100CA0002D2000E02B208DF8000001F1010B0DF14B
:100CB000200809E0B9696D1C0E98884782460F9894
:100CC00044F40074761E0560002E02DDBAF1300F88
:100CD000F0D00B998A453ED144F0800406E00F998C
:100CE000681CA9F1010944F400740860B9696D1C1D
:100CF000761E0E98884782463028F0D02BE00B995C
:100D00008A4505D1200603D444F08004761E18E0FD
:100D1000504606F0A1FD08B30DF11301761E44F410
:100D200000748B4508D2AAF130000BF8010B2006A5
:100D300007D5A9F1010003E0200602D409F1010062
:100D40008146A00502D50F99681C0860B9696D1C21
:100D50000E9888478246002ED1DC53E0002E51DDEC
:100D6000BAF1650F02D0BAF1450F4BD1A00549D5B4
:100D7000B9696D1C24F44074761E0E98884782462B
:100D8000002E0CDD2B2804D0BAF12D0F07D144F42E
:100D90008074B9696D1C0E9888478246761EE005FE
:100DA00001D52D2100E02B2108F8011BCDF82C8066
:100DB00021E00DF12901761E44F4007488450CD21F
:100DC000AAF1300010F0FF0088F8000002D10B9962
:100DD000884509D908F1010806E0E00501D5244855
:100DE00001E042F20F708146B9696D1C0E98884788
:100DF00082460F980560002E04DD504606F02CFD5B
:100E00000028D6D1F9690E988847FF208BF800009A
:100E100088F800000020069007904B466A4608A913
:100E200006A8FFF777FEA00502D46FF001002AE7BD
:100E300014F0240F0AD0E00714D1DDE90612386857
:100E4000031D3B600068C0E900120BE0DDE906010C
:100E5000FFF7CAFC0146E00704D13868021D3A607A
:100E60000068016028460EE7000014400000F03FD3
:100E7000F1D8FFFF426842B1016811F8013B23B18C
:100E8000521EC0E90012184670470121C160881E39
:100E9000704742685AB1C368016843B983688B429E
:100EA00005D0491E521CC0E90012002070474FF0C7
:100EB000FF3070477F2801D9002208E0064A02EB84
:100EC0005002C007127800D1120902F00F0201206F
:100ED0009040084070470000149900080EB540F299
:100EE000334202920022CDE900221346FFF794FD1F
:100EF00003B000BD70B58C1810F8015B15F0070346
:100F000001D110F8013B2A1106D110F8012B03E0A2
:100F100010F8016B01F8016B5B1EF9D12B0705D4AA
:100F20000023521E0DD401F8013BFAE710F8013BF3
:100F3000CB1A921C03E013F8015B01F8015B521E0F
:100F4000F9D5A142D8D3002070BD70B50446002564
:100F50002068806800F0010018B32068806820F0E5
:100F600001002168886003F049F8054613E003F0AA
:100F700045F8401B02280ED92068806800F0010067
:100F800048B1A06A40F01000A062E06A40F00100A1
:100F9000E062012070BD2068806800F00100002838
:100FA000E5D10020F6E770B505466C6AA06A00F04E
:100FB0005000E0B9A06A40F40070A0622068806828
:100FC00000F46020B0F5602F0DD1207B58B9A06AE5
:100FD00020F48070A062A06A00F4805018B9A06A62
:100FE00040F00100A062204602F01CF903E0206AF4
:100FF000016B2846884770BD70B505466C6AA06ACB
:1010000040F04000A062E06A40F00400E062204648
:1010100002F00AF970BD70B50446656A284602F010
:1010200002F970BD38B50446002500200090206804
:10103000806800F0010078BB2068806840F0010003
:1010400021688860194800681949B0FBF1F00090E8
:1010500002E00098401E009000980028F9D102F0AC
:10106000CDFF054619E002F0C9FF401B022814D944
:101070002068806800F0010078B9A06A40F0100094
:10108000A062E06A40F00100E06200BF002084F846
:10109000240000BF012038BD05E02068806800F012
:1010A00001000028DFD00020F5E70000E81900204B
:1010B00040420F0070B504460025012C1ED0022CC2
:1010C00042D0032C71D0042C7CD1484800681030E9
:1010D00046490968C97950F82100806D48B14348F4
:1010E0000068103041490968C97950F821003F492A
:1010F000086001203D490871012564E03B48006813
:10110000C07900B95FE039480068C07930B137482C
:101110000068C079401E35490968C87133480068C5
:10112000C07932490968097988420CDA2F48006889
:10113000C0792E49096808712C4800680079C01CE4
:101140002A49096848713EE028480068C179274863
:1011500000688079401E814200D134E02348006855
:10116000C079224909688979884206DC1F480068ED
:10117000C079401C1D490968C8711C480068C079C5
:101180001A490968497988420CDD18480068C07915
:10119000164909684871154800684079C01E13490E
:1011A000096808710FE000E00CE010480068406D2D
:1011B00020B10E480068406D0C49086001200B49C1
:1011C000087100E000BF00BF012D01D1002570BDF6
:1011D0001CB906480079012806D106F016FF07F071
:1011E00009F900200149087100BFF0E70400002060
:1011F00027482849086128492648416127498161D3
:101200002749C161274823494865274888652748F9
:101210001F49086126491E484161264981612649C6
:10122000C1611C481A4948652448886524481F49FB
:10123000C860244888651648486523481C49C8602A
:10124000224888651248486521481A49C8602148E3
:1012500088650F48486520481749C8601F48886559
:101260000B4848651E480C4988651E48C8600848F8
:1012700048651D48094988651C48C8600448486598
:101280001B48074988651B48C86001484865704786
:10129000F01400207C0600204C180020DC180020F0
:1012A0006C19002020060020B510000880150020D1
:1012B0004416002008170020CC170020551B0008FA
:1012C0004C150020ED690008DC1500202D560008A3
:1012D000A01600204D590008641700206D5C00081E
:1012E000996200082818002009250008A818002085
:1012F0005D220008381900207CB504460025012C29
:101300007DD0022C0ED0032C7AD0042C79D1CA487F
:10131000007818B90120C849087002E00020C649C9
:101320000870E7E0C448007898BBC4480068C079FA
:10133000052804DB0020C1490968C87106E0BF48E0
:101340000068C079401CBD490968C871BB48006885
:10135000C079032190FBF1F000EB800101EBC000AC
:10136000B6490968C96801EB80002030B3490968B3
:10137000C979032291FBF2F302FB1311405C2E2882
:1013800006D1AE480068C079401CAC490968C871F4
:10139000A4E0FFE7A848007801286AD1A7480068C0
:1013A000C079032190FBF1F000EB800101EBC0005C
:1013B000A2490968C96801EB800020309F4909688B
:1013C000C979032291FBF2F302FB1311405C401C2C
:1013D000C1B29A480068C07990FBF2F000EB80023D
:1013E00002EBC000954A1268D26802EB8000203000
:1013F000924A1268D279032392FBF3F602E06EE080
:101400006EE076E003FB162281548C480068C079B8
:10141000032190FBF1F000EB800101EBC000874954
:101420000968C96801EB8000203084490968C979DE
:10143000032291FBF2F302FB1311405C302819DA0E
:101440007E480068C079032190FBF1F000EB800139
:1014500001EBC00079490968C96801EB80002030C0
:1014600076490968C97991FBF2F302FB131139221D
:10147000425433E071480068C079032190FBF1F0D9
:1014800000EB800101EBC0006C490968C96801EB01
:101490008000203069490968C979032291FBF2F381
:1014A00002FB1311405C392818DD64480068C079DC
:1014B000032190FBF1F000EB800101EBC0005F49DC
:1014C0000968C96801EB800020305C490968C97966
:1014D00091FBF2F302FB1311302242540AE009E0BF
:1014E00056480068406D5549086001200871012583
:1014F00000E000BF00BF012D01D100257CBD1CB95B
:101500004E480079012872D10020019006F07DFD3F
:10151000002000904948006800231021C268012083
:1015200006F034FE9DF8040031E044480068C079BC
:101530009DF80410884213D1012000903F480068B4
:10154000C06820309DF80430C2189DF80400C00027
:101550001030C1B238480378032006F0A1FE11E034
:101560000020009035480068C06820309DF80430A5
:10157000C2189DF80400C0001030C1B2002303203F
:1015800006F08EFE9DF80400401CC0B201909DF84C
:1015900004000328C9DB0020009028480068C068C8
:1015A00000F1340200231021052006F0EFFD9DF824
:1015B000040036E021480068C0799DF80410884294
:1015C00016D1012000901D480068C06854309DF875
:1015D0000430DB1EC2189DF80400C01EC00010308D
:1015E000C1B215480378072006F05AFE14E020E047
:1015F0000020009011480068C06854309DF8043005
:10160000DB1EC2189DF80400C01EC0001030C1B21D
:101610000023072006F044FE9DF80400401CC0B2E1
:1016200001909DF804000628C4DB002003490871DE
:1016300000BF00BF62E7000060050020040000203A
:1016400070B504460025012C1ED0022C42D0032C7C
:1016500071D0042C7CD14848006810304649096894
:10166000C97950F82100806D48B1434800681030B6
:1016700041490968C97950F821003F4908600120B3
:101680003D490871012564E03B480068C07900B914
:101690005FE039480068C07930B137480068C079E8
:1016A000401E35490968C87133480068C07932491D
:1016B0000968097988420CDA2F480068C0792E49F8
:1016C000096808712C4800680079C01C2A4909681B
:1016D00048713EE028480068C17927480068807951
:1016E000401E814200D134E023480068C07922497D
:1016F00009688979884206DC1F480068C079401C67
:101700001D490968C8711C480068C0791A490968F0
:10171000497988420CDD18480068C0791649096883
:101720004871154800684079C01E1349096808715E
:101730000FE000E00CE010480068406D20B10E485A
:101740000068406D0C49086001200B49087100E0F9
:1017500000BF00BF012D01D1002570BD1CB9064896
:101760000079012806D106F050FC06F043FE002067
:101770000149087100BFF0E7040000202C482D4902
:1017800008612D492B4841612C4981612C49C16177
:101790002C4901622C4941622C4981622C49C16269
:1017A0002C48244948652C4888652C482249C86043
:1017B0002B4888651F4848652A481D49C8602A4843
:1017C00088651C48486529481C49C86028488865C0
:1017D0001848486527481A49C86027488865154849
:1017E000486526481749C8602548886511484865F6
:1017F00024481549C860244888650E484865234830
:101800001249C860224888650A484865214808612D
:1018100021482049C860214888650C48486520480F
:101820000B49C8601F48886502484865704700003A
:101830004C000020D806002010010020A00100204C
:1018400030020020B002002030030020B00300204E
:10185000400400202006002041160008A8000020B7
:10186000A14F000818000020E96300086C01002067
:10187000A9180008FC010020B92700088C020020EC
:101880006D6100080C030020BD1D00088C030020C2
:1018900041750008040500209C040020D97100084F
:1018A0000C040020652C00087CB504460025012CA2
:1018B0007ED0022C0ED0032C7BD0042C7AD1A248EF
:1018C000007818B90120A049087002E000209E4964
:1018D0000870E2E09C48007898BB9C480068C0799A
:1018E000052804DB002099490968C87106E097487B
:1018F0000068C079401C95490968C8719348006820
:10190000C079062190FBF1F000EB800101EBC000F3
:101910008E490968C96801EB800020308B4909684D
:10192000C979062291FBF2F302FB1311405C2E28C9
:1019300006D186480068C079401C84490968C8718E
:101940009FE0FFE780480078012865D17F48006864
:10195000C079062190FBF1F201FB12017B4800687F
:10196000C2687A480068C07900EB800303EBC000CE
:1019700002EB80002030405C401CC1B2734800681C
:10198000C079062290FBF2F302FB13026F48006855
:10199000C0686E4B1B68DB7903EB830606EBC30361
:1019A00000EB83002030815468480068C07902E071
:1019B00068E068E070E0062190FBF1F000EB800148
:1019C00001EBC00061490968C96801EB8000203063
:1019D0005E490968C979062291FBF2F302FB1311F3
:1019E000405C302819DA59480068C079062190FB1C
:1019F000F1F000EB800101EBC00054490968C968AF
:101A000001EB8000203051490968C97991FBF2F35C
:101A100002FB13113922425433E04C480068C0796C
:101A2000062190FBF1F000EB800101EBC00047497B
:101A30000968C96801EB8000203044490968C97908
:101A4000062291FBF2F302FB1311405C392818DDEA
:101A50003E480068C079062190FBF1F000EB800160
:101A600001EBC00039490968C96801EB80002030EA
:101A700036490968C97991FBF2F302FB1311302250
:101A800042540AE009E031480068406D2F4908607F
:101A900001200871012500E000BF00BF012D01D128
:101AA00000257CBD1CB92948007901284AD10020B5
:101AB000019006F0AAFA0020009024480068002354
:101AC0001021C268012006F061FB9DF8040031E09E
:101AD0001E480068C0799DF80410884213D1012087
:101AE00000901A480068C06820309DF80430C21881
:101AF0009DF80400C0001030C1B2134803780320E1
:101B000006F0CEFB11E00020009010480068C0688D
:101B100020309DF80430C2189DF80400C000103039
:101B2000C1B20023032006F0BBFB9DF80400401C5B
:101B3000C0B201909DF804000628C9DB00200349CB
:101B4000087100BF00BFACE7600500200400002062
:101B500000BFFEE770B504460025012C1ED0022C04
:101B600042D0032C71D0042C7CD14848006810303E
:101B700046490968C97950F82100806D48B1434849
:101B80000068103041490968C97950F821003F497F
:101B9000086001203D490871012564E03B48006868
:101BA000C07900B95FE039480068C07930B1374882
:101BB0000068C079401E35490968C871334800681B
:101BC000C07932490968097988420CDA2F480068DF
:101BD000C0792E49096808712C4800680079C01C3A
:101BE0002A49096848713EE028480068C1792748B9
:101BF00000688079401E814200D134E023480068AB
:101C0000C079224909688979884206DC1F48006842
:101C1000C079401C1D490968C8711C480068C0791A
:101C20001A490968497988420CDD18480068C0796A
:101C3000164909684871154800684079C01E134963
:101C4000096808710FE000E00CE010480068406D82
:101C500020B10E480068406D0C49086001200B4916
:101C6000087100E000BF00BF012D01D1002570BD4B
:101C70001CB906480079012806D106F0C6F906F01D
:101C8000B9FB00200149087100BFF0E70400002003
:101C90003EB504460025012C26D0022C0ED0032C84
:101CA00023D0042C2AD13B48007818B901203949A7
:101CB000087002E000203749087020E035480078BD
:101CC00000B100BF34480068C079012804DB00205F
:101CD00031490968C87106E02F480068C079401C86
:101CE0002D490968C8710AE009E02B480068406D79
:101CF0002949086001200871012500E000BF00BFEC
:101D0000012D01D100253EBD1CB9234800790128D1
:101D10003DD12A2002900020019006F076F90020A3
:101D200000901D48006800230821C268012006F0C9
:101D30002DFA002000909DF80420D2001032D1B27C
:101D4000154A1268D279032303EB4202D0B2002372
:101D500002AA06F0A5FA0020034610A22021009056
:101D6000032006F013FA002003460EA22021009063
:101D7000052006F00BFA002003460DA2202100905A
:101D8000052006F003FA00200349087100BF00BFD8
:101D9000B9E700006005002004000020C3D7286DCB
:101DA00029000000BAC1C3D7286D6D2900000000CA
:101DB000D3A2B3DF28747429000000003EB50446A6
:101DC0000025012C26D0022C0ED0032C23D0042C6D
:101DD0002AD13748007818B901203549087002E047
:101DE00000203349087020E03148007800B100BF7E
:101DF00030480068C079012804DB00202D490968BB
:101E0000C87106E02B480068C079401C2949096860
:101E1000C8710AE009E027480068406D254908605C
:101E200001200871012500E000BF00BF012D01D194
:101E300000253EBD1CB91F480079012835D12A2054
:101E400002900020019006F0E0F800200090194870
:101E5000006800230821C268012006F097F90020DD
:101E600000909DF80420D2001032D1B2114A1268BD
:101E7000D279032303EB4202D0B2002302AA06F078
:101E80000FFA002003460CA220210090032006F048
:101E90007DF9002003460AA220210090052006F0CB
:101EA00075F900200349087100BF00BFC1E70000B9
:101EB000600500200400002032302D346D41000008
:101EC000342D32306D4100007CB504460025012CD4
:101ED0007DD0022C0ED0032C7AD0042C79D1CA48A4
:101EE000007818B90120C849087002E00020C649EE
:101EF0000870E7E0C448007898BBC4480068C0791F
:101F00000D2804DB0020C1490968C87106E0BF48FC
:101F10000068C079401CBD490968C871BB480068A9
:101F2000C079072190FBF1F000EB800101EBC000CC
:101F3000B6490968C96801EB80002030B3490968D7
:101F4000C979072291FBF2F302FB1311405C2E28A2
:101F500006D1AE480068C079401CAC490968C87118
:101F6000A4E0FFE7A848007801286AD1A7480068E4
:101F7000C079072190FBF1F000EB800101EBC0007C
:101F8000A2490968C96801EB800020309F490968AF
:101F9000C979072291FBF2F302FB1311405C401C4C
:101FA000C1B29A480068C07990FBF2F000EB800261
:101FB00002EBC000954A1268D26802EB8000203024
:101FC000924A1268D279072392FBF3F602E06EE0A0
:101FD0006EE076E003FB162281548C480068C079DD
:101FE000072190FBF1F000EB800101EBC000874975
:101FF0000968C96801EB8000203084490968C97903
:10200000072291FBF2F302FB1311405C302819DA2E
:102010007E480068C079072190FBF1F000EB800159
:1020200001EBC00079490968C96801EB80002030E4
:1020300076490968C97991FBF2F302FB1311392241
:10204000425433E071480068C079072190FBF1F0F9
:1020500000EB800101EBC0006C490968C96801EB25
:102060008000203069490968C979072291FBF2F3A1
:1020700002FB1311405C392818DD64480068C07900
:10208000072190FBF1F000EB800101EBC0005F49FC
:102090000968C96801EB800020305C490968C9798A
:1020A00091FBF2F302FB1311302242540AE009E0E3
:1020B00056480068406D55490860012008710125A7
:1020C00000E000BF00BF012D01D100257CBD1CB97F
:1020D0004E480079012872D10020019005F095FF4B
:1020E000002000904948006800231021C2680120A8
:1020F00006F04CF89DF8040031E044480068C079CF
:102100009DF80410884213D1012000903F480068D8
:10211000C06820309DF80430C2189DF80400C0004B
:102120001030C1B238480378032006F0B9F811E046
:102130000020009035480068C06820309DF80430C9
:10214000C2189DF80400C0001030C1B20023032063
:1021500006F0A6F89DF80400401CC0B201909DF85E
:1021600004000728C9DB0020009028480068C068E8
:1021700000F1340200231021052006F007F89DF835
:10218000040036E021480068C0799DF804108842B8
:1021900016D1012000901D480068C06854309DF899
:1021A0000430DB1FC2189DF80400C01FC0001030AF
:1021B000C1B215480378072006F072F814E020E059
:1021C0000020009011480068C06854309DF8043029
:1021D000DB1FC2189DF80400C01FC0001030C1B240
:1021E0000023072006F05CF89DF80400401CC0B2F4
:1021F00001909DF804000E28C4DB002003490871FB
:1022000000BF00BF62E7000060050020040000205E
:1022100010B5024801F0C0FA10BD0000A01B00205C
:1022200010B5024801F0B8FA10BD00005C1B002098
:1022300030B590F840500124AC40C56B6C60046828
:1022400063604468102C04D10468A2600468E160F3
:1022500003E00468A1600468E26030BD7CB5044618
:102260000025012C7ED0022C0ED0032C7BD0042C18
:102270007AD1A348007818B90120A149087002E07A
:1022800000209F490870E4E09D48007898BB9D4875
:102290000068C079012804DB00209A490968C871E8
:1022A00006E098480068C079401C96490968C871E2
:1022B000944A1268D17901EBD172521002EB820379
:1022C00003EBC2028F4B1B68DB6803EB82022032F8
:1022D0008C4B1B68D87900EBD0735B10A0EB4303E9
:1022E000D25C2E2A06D187480068C079401C8549F7
:1022F0000968C871A1E0FFE781480078012866D12C
:1023000080490968C9687F4A1268D27902EB820362
:1023100003EBC20201EB820120317A4A1268D079C4
:1023200000EBD0725210A0EB4202895C491CCAB289
:1023300074490968CB6873490968C97901EB81065A
:1023400006EBC10103EB810120316E4B1B68D8798C
:1023500000EBD0735B10A0EB4303CA54694A1268C8
:10236000D17902E06AE06AE072E001EBD1725210CA
:1023700002EB820303EBC202624B1B68DB6803EBD8
:10238000820220325F4B1B68D87900EBD0735B1060
:10239000A0EB4303D25C302A1ADA3923594A126877
:1023A000D17901EBD172521002EB820606EBC20228
:1023B000544E3668F66806EB82022032514E36687B
:1023C000F07900EBD0767610A0EB4606935534E01A
:1023D0004C4A1268D17901EBD172521002EB8203A0
:1023E00003EBC202474B1B68DB6803EB820220321F
:1023F000444B1B68D87900EBD0735B10A0EB430310
:10240000D25C392A19DD30233E4A1268D17901EBBA
:10241000D172521002EB820606EBC202394E3668C8
:10242000F66806EB82022032364E3668F07900EB11
:10243000D0767610A0EB460693550AE009E03148C5
:102440000068406D2F49086001200871012500E0F7
:1024500000BF00BF012D01D100257CBD1CB929485A
:10246000007901284AD10020019005F0CEFD00201E
:1024700000902448006800231021C268012005F064
:1024800085FE9DF8040031E01E480068C0799DF883
:102490000410884213D1012000901A480068C068D7
:1024A00020309DF80430C2189DF80400C0001030A0
:1024B000C1B213480378032005F0F2FE11E00020BA
:1024C000009010480068C06820309DF80430C218A1
:1024D0009DF80400C0001030C1B20023032005F0B5
:1024E000DFFE9DF80400401CC0B201909DF804007E
:1024F0000228C9DB00200349087100BF00BFACE718
:1025000060050020040000207CB504460025012C55
:102510007ED0022C0ED0032C7BD0042C7AD1A34881
:10252000007818B90120A149087002E000209F49F5
:102530000870E4E09D48007898BB9D480068C07929
:10254000012804DB00209A490968C87106E0984810
:102550000068C079401C96490968C871944A12689D
:10256000D17901EBD172521002EB820303EBC2026C
:102570008F4B1B68DB6803EB820220328C4B1B689D
:10258000D87900EBD0735B10A0EB4303D25C2E2A0A
:1025900006D187480068C079401C85490968C87120
:1025A000A1E0FFE781480078012866D180490968E9
:1025B000C9687F4A1268D27902EB820303EBC20238
:1025C00001EB820120317A4A1268D07900EBD07297
:1025D0005210A0EB4202895C491CCAB274490968D6
:1025E000CB6873490968C97901EB810606EBC10123
:1025F00003EB810120316E4B1B68D87900EBD0735F
:102600005B10A0EB4303CA54694A1268D17902E017
:102610006AE06AE072E001EBD172521002EB8203D1
:1026200003EBC202624B1B68DB6803EB82022032C1
:102630005F4B1B68D87900EBD0735B10A0EB4303B2
:10264000D25C302A1ADA3923594A1268D17901EB5F
:10265000D172521002EB820606EBC202544E36686B
:10266000F66806EB82022032514E3668F07900EBB4
:10267000D0767610A0EB4606935534E04C4A1268AB
:10268000D17901EBD172521002EB820303EBC2024B
:10269000474B1B68DB6803EB82022032444B1B680C
:1026A000D87900EBD0735B10A0EB4303D25C392ADE
:1026B00019DD30233E4A1268D17901EBD1725210F4
:1026C00002EB820606EBC202394E3668F66806EB6C
:1026D00082022032364E3668F07900EBD0767610E2
:1026E000A0EB460693550AE009E031480068406DCA
:1026F0002F49086001200871012500E000BF00BFDC
:10270000012D01D100257CBD1CB929480079012883
:102710004AD10020019005F078FC00200090244868
:10272000006800231021C268012005F02FFD9DF8EC
:10273000040031E01E480068C0799DF8041088420A
:1027400013D1012000901A480068C06820309DF81D
:102750000430C2189DF80400C0001030C1B2134804
:102760000378032005F09CFD11E000200090104844
:102770000068C06820309DF80430C2189DF804003D
:10278000C0001030C1B20023032005F089FD9DF880
:102790000400401CC0B201909DF804000228C9DB6F
:1027A00000200349087100BF00BFACE760050020AE
:1027B00004000020704700007CB504460025012C71
:1027C0007ED0022C0ED0032C7BD0042C7AD1C948A9
:1027D000007818B90120C749087002E00020C549F7
:1027E00008702FE1C348007898BBC3480068C079DF
:1027F000052804DB0020C0490968C87106E0BE480E
:102800000068C079401CBC490968C871BA480068B2
:10281000C079062190FBF1F000EB800101EBC000D4
:10282000B5490968C96801EB80002030B2490968E0
:10283000C979062291FBF2F302FB1311405C2E28AA
:1028400006D1AD480068C079401CAB490968C87121
:10285000ECE0FFE7A74800780128F9D1A648006816
:10286000C07980BBA4480068C079062190FBF1F2D2
:1028700001FB1201A0480068C0689F4A1268D27923
:1028800002EB820303EBC20200EB82002030405CCB
:102890002B281CD198480068C079062190FBF1F2E2
:1028A00001FB120194480068C068934A1268D2790B
:1028B00002EB820303EBC20200EB8200203003E054
:1028C000B5E0B5E0BDE01AE02D224254AEE08A4802
:1028D0000068C079062190FBF1F201FB12018648E5
:1028E0000068C26884480068C07900EB800303EB8D
:1028F000C00002EB800020302B22425496E07E483C
:102900000068C079062190FBF1F201FB12017A48C0
:102910000068C26878480068C07900EB800303EB68
:10292000C00002EB80002030405C401CC1B2724805
:102930000068C079062290FBF2F302FB13026E4896
:102940000068C3686C480068C07900EB800606EB3D
:10295000C00003EB80002030815467480068C079D4
:10296000062190FBF1F000EB800101EBC000624911
:102970000968C96801EB800020305F490968C9799E
:10298000062291FBF2F302FB1311405C302819DAA6
:1029900059480068C079062190FBF1F000EB8001F6
:1029A00001EBC00054490968C96801EB8000203080
:1029B00051490968C97991FBF2F302FB13113922DD
:1029C000425433E04C480068C079062190FBF1F096
:1029D00000EB800101EBC00047490968C96801EBC1
:1029E0008000203044490968C979062291FBF2F33E
:1029F00002FB1311405C392818DD3F480068C0799C
:102A0000062190FBF1F000EB800101EBC0003A4998
:102A10000968C96801EB8000203037490968C97925
:102A200091FBF2F302FB1311302242540AE009E059
:102A300031480068406D3049086001200871012567
:102A400000E000BF00BF012D01D100257CBD1CB9F5
:102A50002948007901284BD12B260020019005F050
:102A6000D4FA002000902448006800230821C2689E
:102A7000012005F08BFB9DF8040031E01E48006842
:102A8000C0799DF80410884213D1012000901A48A3
:102A90000068C06820309DF80430C2189DF804001A
:102AA000C0001030C1B213480378032005F0F8FBD2
:102AB00011E00020009010480068C06820309DF8A8
:102AC0000430C2189DF80400C0001030C1B20023C9
:102AD000032005F0E5FB9DF80400401CC0B2019006
:102AE0009DF804000628C9DB00200349087100BFD7
:102AF00000BFABE7600500200400002010B50024F3
:102B00001848006800F0400050B1402015490860A6
:102B100001F0B8F800BF01E0601CC4B2142CFBDB6C
:102B20001048006800F0800020B180200D49086046
:102B300001F0A8F80B48006800F4807028B14FF449
:102B400080700849086001F09DF80648006800F4AC
:102B5000007028B14FF400700249086001F092F84B
:102B600010BD000014040140704700002DE9FF5F14
:102B700082460D4690464FF00009CB460020039058
:102B800002905046FDF7A7FD81464F46002601F012
:102B900035FA80B2039000BF701CC6B20A2097FBC2
:102BA000F0F701F02BFA80B20290DDE90201401A41
:102BB000B0F5FA7F01DDBDE8FF9F002FECD14F4655
:102BC00000240FE00A2097FBF0F100FB1170303079
:102BD000C1B2A819401E001B01700A2097FBF0F734
:102BE000601CC4B2B442EDDBB8F1000F02D100208A
:102BF000285501E02E2028554846FDF751FD514645
:102C00000190FDF752FB8346701CC4B217E01049D7
:102C10005846FDF74DFB83465846FDF775FD3030AD
:102C200028555846FDF770FDC0B20090FDF741FDF4
:102C300059460190FDF739FB8346601CC4B208EB8E
:102C40000600401CA042E2DC0020285500BFB2E78D
:102C50000000204170B504460D462846A16D884706
:102C600070BD00007CB504460025012C7DD0022CEF
:102C70000ED0032C7AD0042C79D1CA48007818B928
:102C80000120C849087002E00020C649087031E1FF
:102C9000C448007898BBC4480068C079012804DBA8
:102CA0000020C1490968C87106E0BF480068C079C2
:102CB000401CBD490968C871BB4A1268D17901EB53
:102CC000D172521002EB820303EBC202B64B1B68B7
:102CD000DB6803EB82022032B34B1B68D87900EB30
:102CE000D0735B10A0EB4303D25C2E2A06D1AE4812
:102CF0000068C079401CAC490968C871EEE0FFE784
:102D0000A84800780128F9D1A7480068C07978BBA5
:102D1000A5490968C968A44A1268D27902EB8203FE
:102D200003EBC20201EB820120319F4A1268D07985
:102D300000EBD0725210A0EB4202895C2B291CD10F
:102D40002D2299490968C968974B1B68DB7903EB09
:102D5000830606EBC30301EB83012031924B1B6812
:102D6000D87900EBD0735B1003E0B8E0B8E0C0E0C6
:102D70001BE0A0EB4303CA54B0E02B228A49096848
:102D8000C968894B1B68DB7903EB830606EBC30339
:102D900001EB83012031844B1B68D87900EBD073A1
:102DA0005B10A0EB4303CA5498E07F490968C968E7
:102DB0007D4A1268D27902EB820303EBC20201EB77
:102DC00082012031784A1268D07900EBD07252101B
:102DD000A0EB4202895C491CCAB273490968C96800
:102DE000714B1B68DB7903EB830606EBC30301EB36
:102DF000830120316C4B1B68D87900EBD0735B10DA
:102E0000A0EB4303CA54684A1268D17901EBD1722E
:102E1000521002EB820303EBC202634B1B68DB68B8
:102E200003EB82022032604B1B68D87900EBD07331
:102E30005B10A0EB4303D25C302A1ADA39235A4ADA
:102E40001268D17901EBD172521002EB820606EBC7
:102E5000C202554E3668F66806EB82022032524EA8
:102E60003668F07900EBD0767610A0EB46069355E5
:102E700034E04D4A1268D17901EBD172521002EB65
:102E8000820303EBC202484B1B68DB6803EB820240
:102E90002032454B1B68D87900EBD0735B10A0EB58
:102EA0004303D25C392A19DD30233F4A1268D179B5
:102EB00001EBD172521002EB820606EBC2023A4ECF
:102EC0003668F66806EB82022032374E3668F079B3
:102ED00000EBD0767610A0EB460693550AE009E0A9
:102EE00031480068406D30490860012008710125B3
:102EF00000E000BF00BF012D01D100257CBD1CB941
:102F00002948007901284BD12B260020019005F09B
:102F10007CF8002000902448006800230821C26843
:102F2000012005F033F99DF8040031E01E480068E7
:102F3000C0799DF80410884213D1012000901A48EE
:102F40000068C06820309DF80430C2189DF8040065
:102F5000C0001030C1B213480378032005F0A0F977
:102F600011E00020009010480068C06820309DF8F3
:102F70000430C2189DF80400C0001030C1B2002314
:102F8000032005F08DF99DF80400401CC0B20190AB
:102F90009DF804000228C9DB00200349087100BF26
:102FA00000BFABE76005002004000020F8B5044630
:102FB00000260020009000BF94F82400012801D1D1
:102FC0000220F8BD012084F8240000BF2046FDF750
:102FD000BCFF0646002E6CD1A06A20F4885040F059
:102FE0000200A062022001F0D7F835490968B1FB60
:102FF000F0F04000009002E00098401E0090009821
:103000000028F9D12046FEF70DF82068806840F0CE
:1030100008002168886000F0F1FF054616E000F026
:10302000EDFF401B0A2811D92068806800F00800D5
:1030300060B1A06A20F0020040F01000A06200BF62
:10304000002084F8240000BF0120BAE720688068CF
:1030500000F008000028E2D12068806840F00400F9
:103060002168886000F0CAFF054616E000F0C6FF40
:10307000401B0A2811D92068806800F0040060B164
:10308000A06A20F0020040F01000A06200BF002003
:1030900084F8240000BF012093E72068806800F0D6
:1030A00004000028E2D1A06A20F0020040F00100F4
:1030B000A06200BF002084F8240000BF304680E7F3
:1030C000E819002038B5024600230020009000BF18
:1030D00092F82400012801D1022038BD012082F895
:1030E000240000BF4868072812D21068406B0C7992
:1030F000641E04EB84051F24AC40A0430D796D1EB3
:1031000005EB85050C68AC4020431468606327E03C
:1031100048680D2812D21068006B0C79E41F04EB8C
:1031200084051F24AC40A0430D79ED1F05EB8505F8
:103130000C68AC4020431468206311E01068C06A3A
:103140000C790D3C04EB84051F24AC40A0430D79A1
:103150000D3D05EB85050C68AC4020431468E0622A
:1031600008680A2812D31068C0680C780A3C04EB7F
:1031700044050724AC40A0430D780A3D05EB450506
:103180008C68AC4020431468E0600FE01068006970
:103190000C7804EB44050724AC40A0430D7805EB04
:1031A00045058C68AC4020431468206108681028ED
:1031B00002D00868112827D1174C1068A0421ED1F0
:1031C0001068806800F40000F0B91068806840F46E
:1031D00000001468A0600868102815D10F48006826
:1031E0000F4CB0FBF4F000EB80004000009002E0D8
:1031F0000098401E009000980028F9D104E0906AE1
:1032000040F020009062012300BF002082F82400DB
:1032100000BF184661E7000000240140E8190020C3
:1032200040420F0070477047704700002DE9F041A1
:103230000446002700250026A84614B90120BDE851
:10324000F081A06810B1207D00B100BFA06A30B944
:103250000020E06284F82400204600F097F8204621
:10326000FDF773FE0746A06A00F01000002873D136
:10327000002F7ED1A06A20F4885040F00200A062A6
:103280003F4AD4E90001904208D1E069B0F5402FEF
:1032900002D14FF4002002E0E06900E0E069014360
:1032A000207B41EA40000643A068B0F5807F02D051
:1032B000A068012802D14FF4807000E0002005438F
:1032C000207D012811D1207B38B9A069401E4FF420
:1032D000006141EA4030054307E0A06A40F0200069
:1032E000A062E06A40F00100E0622068406820F4DB
:1032F0006940284321684860206880682149084067
:10330000304321688860A068B0F5807F02D0A06853
:10331000012802D14FF4807000E00020B0F5807FDA
:1033200003D1208A401E4FEA00582068C06A20F46A
:10333000700040EA08002168C8622068806812496D
:103340000840B04209D10020E062A06A20F00200EB
:1033500040F00100A06211E00BE0A06A20F0020042
:1033600040F01000A062E06A40F00100E062012736
:1033700004E0A06A40F01000A062012738465EE732
:10338000003C0140FDF7E1FFFE0E1FFF38B504468B
:103390001D492068884235D100BF1C48806940F42F
:1033A00000701A4988610846806900F40070009036
:1033B00000BF00BF00BF0846406940F001004861FF
:1033C0000846406900F00100009000BF00BF1048AF
:1033D000104908600020486000210E48816080216B
:1033E000C160490001618900416100218161C161C1
:1033F00000F09EFB08B1FFF7B7FB00BF0548206255
:10340000446200BF38BD00000024014000100240AB
:1034100008000240801A00202DE9F04104460D46C4
:103420001646002757492068884203D0564920682D
:10343000884205D15348001D006800F4702000E068
:10344000002000287ED100BF94F82400012802D17A
:103450000220BDE8F081012084F8240000BF20464E
:10346000FDF7E0FD0746002F6DD1A06A40F601612F
:10347000884340F48070A06243492068884209D1A3
:103480004048001D006800F4702008B9012002E0E7
:10349000002000E0012078B1A06A20F48010A06232
:1034A0002068406800F4806000B3A06A20F40050F7
:1034B00040F48050A06219E0A06A40F48010A0623D
:1034C00030492068884203D02F492068884205D1BE
:1034D0002C48001D006800F4806000E0002028B146
:1034E000A06A20F4005040F48050A062A06A00F46A
:1034F000805020B1E06A20F00600E06201E0002088
:10350000E06200BF002084F8240000BF1F48216A49
:1035100088621F48216AC8621E48216A08636FF0EA
:103520000200216808602068806840F4807021688B
:103530008860226802F14C0133462A46206A00F076
:103540003DFB01E01AE014E02068806800F4602090
:10355000B0F5602F06D12068806840F4A000216893
:1035600088600CE02068806840F4801021688860E2
:1035700005E000BF002084F8240000E00127384661
:1035800067E700000024014000280140A70F000861
:1035900017100008F90F00080146002291F82100D9
:1035A000022808D00420886300BF002081F8200092
:1035B00000BF012070470868006820F00E000B680B
:1035C00018600868006820F001000B68186091F826
:1035D000403001209840CB6B5860012081F82100D9
:1035E00000BF002081F8200000BF1046E2E7000085
:1035F00070B50446002594F82100022803D0042069
:10360000A0630125C1E02068006820F00E00216859
:1036100008602068006820F00100216808605C49AB
:103620002068884252D95A4978392068884201D1A5
:10363000012047E0564964392068884201D11020B2
:1036400040E0534950392068884201D1801539E063
:103650004F493C392068884201D1801432E04C49FE
:1036600028392068884202D14FF480302AE0484946
:1036700014392068884202D14FF4801022E0444976
:103680002068884201D140041CE0424920688842F9
:1036900001D1012016E03F4914312068884201D150
:1036A00010200FE03B4928312068884201D1801565
:1036B00008E038493C312068884201D1801401E09B
:1036C0004FF480303349091F086051E030497839A0
:1036D0002068884201D1012047E02D4964392068E3
:1036E000884201D1102040E02949503920688842A1
:1036F00001D1801539E026493C392068884201D142
:10370000801432E0224928392068884202D14FF4DF
:1037100080302AE01E4914392068884202D14FF4D3
:10372000801022E01A492068884201D140041CE040
:1037300018492068884201D1012016E0154914314A
:103740002068884201D110200FE0124928312068FA
:10375000884201D1801508E00E493C31206888423A
:1037600001D1801401E04FF480300949803948606C
:10377000012084F8210000BF002084F8200000BF51
:10378000606B10B12046616B8847284670BD000011
:10379000800002400804024070B50446E06B0568F2
:1037A0002068066894F840100420884028400028CB
:1037B00075D006F004000028FAD02068006800F0F8
:1037C000200028B92068006820F004002168086003
:1037D000D5492068884254D9D3497839206888422D
:1037E00001D1042049E0D04964392068884201D1E0
:1037F000402042E0CC4950392068884201D1001570
:103800003BE0C9493C392068884202D14FF48040EE
:1038100033E0C54928392068884202D14FF480201E
:103820002BE0C14914392068884202D14FF480004E
:1038300023E0BD492068884201D1C0041DE0BB4996
:103840002068884201D1042017E0B849143120686B
:10385000884201D1402010E0B449283120688842D4
:1038600001D1001509E0B1493C312068884202D1FC
:103870004FF4804001E04FF48020AC49091F0860FC
:1038800054E0A94978392068884201D104204AE0EF
:10389000A54964392068884202D1402043E04CE0C9
:1038A000A14950392068884201D100153BE09E496A
:1038B0003C392068884202D14FF4804033E09A4975
:1038C00028392068884202D14FF480202BE09649A5
:1038D00014392068884202D14FF4800023E09249D5
:1038E0002068884201D1C0041DE0904920688842C8
:1038F00001D1042017E08D4914312068884201D19C
:10390000402010E0894928312068884201D1001503
:1039100009E086493C312068884202D14FF480405A
:1039200001E04FF48020804980394860E06A002837
:1039300002D02046E16A8847F4E094F84010022063
:1039400088402840002871D006F002000028FAD0F4
:103950002068006800F0200040B92068006820F06E
:103960000A0021680860012084F821006E4920685F
:10397000884254D96C4978392068884201D10220A4
:1039800049E0694964392068884201D1202042E039
:10399000654950392068884201D140153BE06249B1
:1039A0003C392068884202D14FF4005033E05E4930
:1039B00028392068884202D14FF400302BE05A4960
:1039C00014392068884202D14FF4001023E0564990
:1039D0002068884201D180041DE054492068884253
:1039E00001D1022017E0514914312068884201D1E9
:1039F000202010E04D4928312068884201D140152F
:103A000009E04A493C312068884202D14FF4005015
:103A100001E04FF400304549091F086054E0424975
:103A200078392068884202D102204AE057E03E49B6
:103A300064392068884201D1202042E03A49503957
:103A40002068884201D140153BE037493C39206865
:103A5000884202D14FF4005033E0334928392068BE
:103A6000884202D14FF400302BE02F4914392068EE
:103A7000884202D14FF4001023E02B49206888428D
:103A800001D180041DE029492068884201D102202B
:103A900017E0264914312068884201D1202010E027
:103AA000224928312068884201D1401509E01F4988
:103AB0003C312068884202D14FF4005001E04FF4BD
:103AC000003019498039486000BF002084F8200088
:103AD00000BFA06A30B32046A16A884722E094F86C
:103AE0004010082088402840E0B106F00800C8B126
:103AF0002068006820F00E002168086094F84010EB
:103B000001208840E16B48600120A06384F8210017
:103B100000BF002084F8200000BF206B10B12046B9
:103B2000216B884770BD00008000024008040240FD
:103B30000146002209B9012070471E4B08689842CF
:103B40000BD21D4B0868C01A1423B0FBF3F08000A1
:103B5000086419480838C8630AE0164B0868C01A98
:103B60001423B0FBF3F08000086412480838C863DF
:103B7000022081F821000868026843F6F070824351
:103B8000D1E901031843CB6818430B6918434B690B
:103B900018438B691843CB691843024308680260D5
:103BA00000208863012081F82100002081F8200096
:103BB00000BFC1E708040240080002402DE9F041BF
:103BC00004460D4616461F464FF0000800BF94F805
:103BD0002000012802D10220BDE8F081012084F8F4
:103BE000200000BF94F8210001282CD1022084F885
:103BF00021000020A0632068006820F001002168F7
:103C000008603B46324629462046FEF711FBE06A33
:103C100030B12068006840F00E00216808600BE0B9
:103C20002068006820F004002168086020680068AF
:103C300040F00A00216808602068006840F0010038
:103C40002168086006E000BF002084F8200000BF63
:103C50004FF002084046BFE770B5044600F0CEF9C9
:103C600006462546681C10B104480078054400BF8C
:103C700000F0C4F9801BA842FAD370BDE4190020FB
:103C80007047000010B5044604480068204020B189
:103C9000024804602046FFF7F3FF10BD1404014002
:103CA0002DE9F847024600239C467BE14FF00108CE
:103CB00008FA03F4D1F8008008EA0400A0427DD19C
:103CC000DFF8F4A2D1F80480A8EB0A09D0453AD075
:103CD00014DCB8F1030F50D009DCB8F1000F31D07B
:103CE000B8F1010F1CD0B8F1020F49D120E0B8F1B2
:103CF000110F18D0B8F1120F42D11EE0B9F5881F8C
:103D000025D006DCB9F5803F20D0B9F5801F37D12A
:103D10001AE0B9F5001F18D0B9F5041F30D117E02B
:103D2000D1F80CC02DE0D1F80C8008F1040C28E08B
:103D3000D1F80C8008F1080C23E0D1F80C8008F1D0
:103D40000C0C1EE000BF00BF00BF00BF00BF00BFE3
:103D5000D1F80880B8F1000F02D14FF0040C0BE04D
:103D6000D1F80880B8F1010F03D14FF0080C1461AD
:103D700002E04FF0080C546103E04FF0000C00E04B
:103D800000BF00BFFF2801D8904601E002F10408FF
:103D90004646FF2802D84FEA830803E0A3F108084B
:103DA0004FEA88084746D6F800804FF00F0909FA15
:103DB00007F928EA09080CFA07F900E07AE048EA6E
:103DC0000908C6F80080D1F8048008F08058B8F1DE
:103DD000805F6FD100BFDFF8E481D8F8188048F029
:103DE0000108DFF8D891C9F81880C846D8F81880BB
:103DF00008F00108CDF8008000BF00BF4FEAB938D5
:103E00004FEA930958F829504FEA83784FEA187916
:103E10004FF00F0808FA09F825EA0805DFF8A08135
:103E2000424502D14FF0000824E0DFF89881424576
:103E300002D14FF001081DE0DFF88C81424502D12C
:103E40004FF0020816E0DFF88481424502D14FF0BE
:103E500003080FE0DFF87881424502D14FF00408F3
:103E600008E0DFF87081424502D14FF0050801E01B
:103E70004FF006084FEA83794FEA197908FA09F8F2
:103E800048EA0505DFF850814FEA930948F82950C0
:103E9000D1F8048008F48038B8F5803F0BD1DFF802
:103EA0003C81D8F8008048EA0008DFF83091C9F872
:103EB00000800AE075E0DFF82481D8F8008028EA65
:103EC0000008DFF81891C9F80080D1F8048008F4E0
:103ED0000038B8F5003F0ED1DFF8008108F1040882
:103EE000D8F8008048EA0008DFF8F09009F10409EA
:103EF000C9F800800DE0DFF8E48008F10408D8F884
:103F0000008028EA0008DFF8D49009F10409C9F814
:103F10000080D1F8048008F48018B8F5801F0ED115
:103F2000DFF8B88008F10808D8F8008048EA0008EF
:103F3000DFF8A89009F10809C9F800800DE0DFF862
:103F40009C8008F10808D8F8008028EA0008DFF80B
:103F50008C9009F10809C9F80080D1F8048008F4B0
:103F60000018B8F5001F0ED1DFF8708008F10C08BA
:103F7000D8F8008048EA0008DFF8609009F10C09E1
:103F8000C9F800800DE0DFF8548008F10C08D8F87B
:103F9000008028EA0008DFF8449009F10C09C9F80C
:103FA00000805B1CD1F8008028FA03F8B8F1000FFC
:103FB0007FF47CAEBDE8F8870000111000100240CD
:103FC00000080140000C01400010014000140140B5
:103FD00000180140001C014008000140000401409D
:103FE000024693680B400BB1012000E000207047AF
:103FF0000AB1016101E00B040361704701480068E8
:1040000070470000DC190020034800680349097864
:104010000844014908607047DC190020E4190020B9
:1040200010B50848006840F01000064908600320F9
:1040300000F09EF8002000F007F800F02BF80020B8
:1040400010BD00000020024070B504460E48007804
:104050004FF47A71B1FBF0F00C490968B1FBF0F54F
:10406000284600F09BFC08B1012070BD102C07D23F
:1040700000222146501E00F03DF80548046001E092
:104080000120F2E70020F0E7E4190020E819002001
:10409000E019002008B500BF0D48806940F001001C
:1040A0000B4988610846806900F00100009000BF5C
:1040B00000BF00BF0846C06940F08050C861084694
:1040C000C06900F08050009000BF00BF08BD000034
:1040D0000010024001460846002809DB00F01F03DB
:1040E00001229A4043099B0003F1E023C3F8002119
:1040F00000BF70472DE9F05F80460D461646002749
:1041000003F0B0FA074639462A46334601F0070065
:10411000C0F1070ABAF1040F02D94FF0040A01E016
:10412000C0F1070AD14600F1040ABAF1070F02D222
:104130004FF0000A01E0A0F1030AD4464FF0010A53
:104140000AFA09FAAAF1010A0AEA020A0AFA0CFAB8
:104150004FF0010B0BFA0CFBABF1010B0BEA030B5D
:104160004AEA0B042146404603F084FABDE8F09F7A
:1041700000BF00F00702064B19684FF6FF03194015
:10418000044B0B4343EA0221014B196000BF704707
:104190000CED00E00000FA052DE9F04385B006467D
:1041A00042A30FCB01AC0FC444A0006800904FF0B5
:1041B0000008002500270024A146042E36D004DC88
:1041C000012E3BD0022E6BD15FE0082E32D0102E94
:1041D00066D13B484468006800F0807000B301A8D5
:1041E000C4F38341475C04F4803070B134484068C4
:1041F000C0F340401DF8008004F4803040B13148E5
:10420000B0FBF8F000FB07F502E02F4807FB00F5D4
:104210002B48406800F48000B0F5800F01D1A9461A
:1042200003E068000321B0FBF1F93AE000F03AF94D
:10423000814636E000F036F9814632E02048046AD3
:1042400004F44070B0F5807F05D104F0020010B195
:104250004FF4004918E004F44070B0F5007F07D136
:104260001748406A00F0020010B149F640490BE0DF
:1042700004F44070B0F5407F06D11148006800F4A6
:10428000003008B14FF224490BE000F0FBF80C4974
:104290004968C1F38131491C4900B0FBF1F900E0E4
:1042A00000BF00BF484605B0BDE8F0830203040527
:1042B000060708090A0B0C0D0E0F10100102000072
:1042C0000010024000127A0000093D0070B504465B
:1042D0000D460CB9012070BD5A48006800F0070077
:1042E000A8420ED25748006820F0070028435549DD
:1042F00008600846006800F00700A84201D00120CD
:10430000E9E7207800F0020002281DD1207800F0B3
:104310000400042805D14C48406840F4E0604A4954
:104320004860207800F00800082805D14648406819
:1043300040F46050444948604348406820F0F00031
:10434000A168084340494860207800F0010078B334
:104350006068012806D13C48006800F4003090B93C
:104360000120B8E76068022806D13748006800F0ED
:10437000007040B90120AEE73348006800F0020049
:1043800008B90120A7E73048406820F003006168C1
:1043900008432D494860FFF731FE064609E0FFF764
:1043A0002DFE801B41F28831884202D9032092E71A
:1043B00007E02548406800F00C006168B0EB810F11
:1043C000EDD12048006800F00700A8420ED91D4832
:1043D000006820F0070028431A4908600846006872
:1043E00000F00700A84201D0012074E7207800F017
:1043F0000400042807D11448406820F4E060E16814
:10440000084311494860207800F00800082808D1C6
:104410000D48406820F46050216940EAC1000A4913
:10442000486000F03FF808494968C1F30311074AA2
:10443000515CC8400649086006480068FFF704FE62
:10444000002048E70020024000100240FC980008CD
:10445000E8190020E01900200148006870470000BA
:10446000E819002000B5FFF7F7FF04494968C1F3D8
:104470000221034A515CC84000BD00000010024008
:104480000C99000800B5FFF7E7FF04494968C1F33C
:10449000C221034A515CC84000BD00000010024028
:1044A0000C990008F0B585B00FF26C0C9CE8E01098
:1044B00001A8A0E8E0101CA52D68009500210022AD
:1044C000002300240020194D696801F00C05F5B1A6
:1044D000042D02D0082D19D101E0154819E001ADD5
:1044E000C1F38346AC5D01F4803555B10F4D6D6865
:1044F000C5F340451DF805200D4D6543B5FBF2F3AE
:1045000002E00C4D04FB05F3184602E000BF08482A
:1045100000BF00BF05B0F0BD02030405060708098F
:104520000A0B0C0D0E0F10100102000000100240CB
:1045300000127A0000093D00F8B504460CB90120CC
:10454000F8BD207800F00100002878D0F8484068D5
:1045500000F00C0004280CD0F548406800F00C0076
:10456000082811D1F248406800F48030B0F5803F4F
:104570000AD1EF48006800F4003000285FD060687E
:1045800000285CD10120DBE700BF6068B0F5803F08
:1045900006D1E748006840F48030E549086028E02B
:1045A000606858B9E248006820F48030E04908604B
:1045B0000846006820F4802008601AE06068B0F5C2
:1045C000A02F0BD1DA48006840F48020D849086059
:1045D0000846006840F4803008600AE0D44800686B
:1045E00020F48030D24908600846006820F480201A
:1045F000086000BF606888B1FFF700FD054606E06F
:10460000FFF7FCFC401B642801D9032098E7C84849
:10461000006800F400300028F2D010E0FFF7EEFC54
:10462000054606E0FFF7EAFC401B642801D9032099
:1046300086E7BF48006800F400300028F2D12078F7
:1046400000F00200022857D1B948406800F00C0081
:1046500050B1B748406800F00C00082818D1B448A1
:10466000406800F4803098B9B148006800F002005A
:1046700020B12069012801D0012061E7AC48006821
:1046800020F0F800616940EAC100A949086033E000
:104690002069E8B10120A7490860FFF7AFFC054693
:1046A00006E0FFF7ABFC401B022801D9032047E7D7
:1046B0009F48006800F002000028F2D09C48006883
:1046C00020F0F800616940EAC1009949086013E0F0
:1046D000002098490860FFF791FC054606E0FFF7C7
:1046E0008DFC401B022801D9032029E7904800686F
:1046F00000F002000028F2D1207800F0080008281D
:104700002DD1A069B8B101208B490860FFF776FC74
:10471000054606E0FFF772FC401B022801D9032082
:104720000EE78348406A00F002000028F2D0012022
:1047300001F046FE13E000207F490860FFF75EFCB1
:10474000054606E0FFF75AFC401B022801D903206A
:10475000F6E67748406A00F002000028F2D120789F
:1047600000F00400042873D100277148C06900F0EC
:10477000805070B900BF6E48C06940F080506C49ED
:10478000C8610846C06900F08050009000BF00BFBB
:1047900001276A48006800F48070B0B96748006873
:1047A00040F4807065490860FFF728FC054606E084
:1047B000FFF724FC401B642801D90320C0E65F48B2
:1047C000006800F480700028F2D000BFE068012883
:1047D00006D15748006A40F001005549086227E0B9
:1047E000E06858B95248006A20F001005049086258
:1047F0000846006A20F00400086219E0E068052815
:104800000BD14B48006A40F0040049490862084651
:10481000006A40F0010008620AE04548006A20F0A2
:104820000100434908620846006A20F0040008625B
:1048300000BFE068A0B1FFF7E1FB054609E0FFF724
:10484000DDFB401B41F28831884202D9032077E624
:1048500022E03748006A00F002000028EFD012E0A2
:10486000FFF7CCFB054608E0FFF7C8FB401B41F211
:104870008831884201D9032062E62D48006A00F0A1
:1048800002000028F0D1012F05D12948C06920F08D
:1048900080502749C86100BFE069C8B32448406818
:1048A00000F00C00082860D0E069022848D1002000
:1048B00020490866FFF7A2FB054606E0FFF79EFBCE
:1048C000401B022801D903203AE61948006800F08D
:1048D00000700028F2D1206AB0F5803F07D114485B
:1048E000406820F40030A168084311494860D4E9C9
:1048F000080108430E49496821F4741108430C4922
:10490000486001200B490866FFF778FB054607E081
:104910003DE0FFF773FB401B022801D903200FE69F
:104920000348006800F000700028F2D02FE000007B
:1049300000100240000042428004424200700040E9
:10494000002014490866FFF759FB054606E0FFF70B
:1049500055FB401B022801D90320F1E50E480068F1
:1049600000F000700028F2D111E0E069012800D1C8
:10497000E6E50948466806F48031206A814204D1A0
:1049800006F47011606A814201D00120D8E5002050
:10499000D6E50000000042420010024070B5044617
:1049A0002546681EB0F1807F01D301200FE0681E0C
:1049B0004FF0E02148610F214FF0FF3002F05AFE26
:1049C00000204FF0E021886107200861002070BDC1
:1049D000704708B5014600BF91F83C00012801D19D
:1049E000022008BD012081F83C0000BF91F83D0085
:1049F000212805D10868406940F080000A685061AC
:104A000091F83E0022281CD100BF002000900868C9
:104A10000068009008684068009000BF00BF086808
:104A2000C06840F480700A68D0600868406940F04F
:104A300001000A6850610868406940F040000A6857
:104A4000506100BF002081F83C0000BF00BFC8E7F4
:104A500070B50446002520684069C0F3C01594F87D
:104A60003D0021280ED16DB12068406920F0800002
:104A700021684861606B10B1606BFEF78DFD2046C8
:104A800002F0ABF920684069C0F3801594F83E004D
:104A900022280ED16DB12068406920F040002168C5
:104AA0004861A06B10B1A06BFEF776FD204602F0C6
:104AB00069F9002070BD70472DE9F84F0446206861
:104AC00005682068C668206847694FF00009CA4633
:104AD00005F00F09B9F1000F0AD105F0200038B137
:104AE00006F0200020B1204602F081F9BDE8F88FE1
:104AF000B9F1000F71D007F0010018B906F49070F9
:104B000000286AD005F0010030B106F4807018B1B9
:104B1000206C40F00100206405F0040030B107F083
:104B2000010018B1206C40F00200206405F0020082
:104B300030B107F0010018B1206C40F0040020648F
:104B400005F0080048B106F0200010B907F0010098
:104B500018B1206C40F008002064206C68B305F0A8
:104B6000200028B106F0200010B1204602F03FF9E5
:104B700020684069C0F3801A206C00F0080010B96A
:104B8000BAF1000F22D0204602F0FCF820684069FC
:104B900000F04000B0B12068406920F0400021687A
:104BA0004861A06B50B15648A16B4863A06BFEF7FB
:104BB0001FFD10B1A06B416B88470CE02046FFF74A
:104BC0007AFF08E02046FFF776FF04E02046FFF773
:104BD00072FF0020206489E7FFE7206B012878D16D
:104BE00005F01000002874D006F01000002870D0E6
:104BF00000BF002000902068006800902068406896
:104C0000009000BF00BF2068406900F04000C0B3C2
:104C1000A06B006840681FFA80F8B8F1000F2FD031
:104C2000A08D40452CDDA4F82E80A06B8069202843
:104C30001FD02068C06820F480702168C860206898
:104C4000406920F00100216848612068406920F037
:104C5000400021684861202084F83E000020206345
:104C60002068C06820F010002168C860A06BFEF7C3
:104C700093FCA08DE28D801A81B22046FFF7A8FE3A
:104C800034E7FFE7A08DE18D401A1FFA80F8E08D30
:104C9000E8B1B8F1000F1AD02068C06820F4907015
:104CA0002168C8602068406920F0010021684861DF
:104CB000202084F83E00002020632068C06820F097
:104CC00010002168C86041462046FFF781FE0DE7CD
:104CD000FFE705F0800030B106F0800018B12046F3
:104CE00002F0C2F902E705F0400030B106F04000E2
:104CF00018B1204602F061F8F8E600BFF6E60000C1
:104D0000996C000810B504460CB9012010BDA069CB
:104D100000B100E000BF94F83D0028B9002084F8FD
:104D20003C00204600F028F8242084F83D0020684C
:104D3000C06820F400502168C860204602F0CAF81C
:104D40002068006920F4904021680861206840696B
:104D500020F02A00216848612068C06840F40050B3
:104D60002168C86000202064202084F83D0084F879
:104D70003E000020CAE7000010B586B004460020BF
:104D8000029003900490059037492068884269D1C9
:104D900000BF3648806940F4804034498861084645
:104DA000806900F48040019000BF00BF00BF08464A
:104DB000806940F0040088610846806900F00400C2
:104DC000019000BF00BF481502900220039003200D
:104DD000059002A92648FEF763FF4FF48060029019
:104DE00000200390049002A92148FEF759FF2148B2
:104DF000214908600020486000211F48816080210F
:104E0000C1600021016141618161C161FEF790FED5
:104E100008B1FDF7A9FE00BF1748A063446200BFB8
:104E200014481438154908601020486000211348C0
:104E300081608021C1600021016141618161C161A6
:104E4000FEF776FE08B1FDF78FFE00BF0B486063EA
:104E5000446200BF002211462520FFF74BF92520B0
:104E6000FFF738F906B010BD0038014000100240CD
:104E700000080140580002405C1B0020A01B0020DD
:104E800070B504460D46164694F83E00202816D10B
:104E900005B10EB9012070BD00BF94F83C00012897
:104EA00001D10220F7E7012084F83C0000BF002078
:104EB000206332462946204602F08AF8EBE70220BA
:104EC000E9E7704770472DE9F84F04460E4617464C
:104ED00099464FF0000A94F83D0020285AD106B1B7
:104EE00017B90120BDE8F88F00BF94F83C000128F5
:104EF00001D10220F6E7012084F83C0000BF002029
:104F00002064212084F83D00FFF778F88246A784CA
:104F1000E784A068B0F5805F04D1206910B900254E
:104F2000B04602E035464FF0000800BF002084F88C
:104F30003C0000BF1BE05346002280212046CDF8F4
:104F4000009002F0C1F808B10320CBE745B9B8F8EA
:104F50000000C0F308002168486008F1020803E07F
:104F60002878216848606D1CE08C401EE084E08C4D
:104F70000028E0D15346002240212046CDF8009081
:104F800002F0A2F808B10320ACE7202084F83D002D
:104F90000020A7E70220A5E7704700BFFEE700005A
:104FA0007CB504460025012C7DD0022C0ED0032CAC
:104FB0007AD0042C79D1CA48007818B90120C849A0
:104FC000087002E00020C6490870E7E0C448007895
:104FD00098BBC4480068C0790D2804DB0020C14993
:104FE0000968C87106E0BF480068C079401CBD4927
:104FF0000968C871BB480068C079072190FBF1F0CF
:1050000000EB800101EBC000B6490968C96801EBFB
:1050100080002030B3490968C979072291FBF2F377
:1050200002FB1311405C2E2806D1AE480068C079FF
:10503000401CAC490968C871A4E0FFE7A8480078A3
:1050400001286AD1A7480068C079072190FBF1F0D8
:1050500000EB800101EBC000A2490968C96801EBBF
:10506000800020309F490968C979072291FBF2F33B
:1050700002FB1311405C401CC1B29A480068C07921
:1050800090FBF2F000EB800202EBC000954A126840
:10509000D26802EB80002030924A1268D27907234E
:1050A00092FBF3F602E06EE06EE076E003FB162280
:1050B00081548C480068C079072190FBF1F000EB27
:1050C000800101EBC00087490968C96801EB8000D5
:1050D000203084490968C979072291FBF2F302FB69
:1050E0001311405C302819DA7E480068C079072126
:1050F00090FBF1F000EB800101EBC00079490968F9
:10510000C96801EB8000203076490968C97991FBB4
:10511000F2F302FB13113922425433E07148006864
:10512000C079072190FBF1F000EB800101EBC0009A
:105130006C490968C96801EB800020306949096839
:10514000C979072291FBF2F302FB1311405C392865
:1051500018DD64480068C079072190FBF1F000EB8E
:10516000800101EBC0005F490968C96801EB80005C
:1051700020305C490968C97991FBF2F302FB1311F5
:10518000302242540AE009E056480068406D554913
:10519000086001200871012500E000BF00BF012D5B
:1051A00001D100257CBD1CB94E480079012872D17F
:1051B0000020019002F029FF00200090494800687B
:1051C00000231021C268012002F0E0FF9DF80400D6
:1051D00031E044480068C0799DF80410884213D13A
:1051E000012000903F480068C06820309DF80430DE
:1051F000C2189DF80400C0001030C1B238480378CE
:10520000032003F04DF811E00020009035480068BD
:10521000C06820309DF80430C2189DF80400C0001A
:105220001030C1B20023032003F03AF89DF80400C7
:10523000401CC0B201909DF804000728C9DB002083
:10524000009028480068C06800F134020023102153
:10525000052002F09BFF9DF8040036E0214800681D
:10526000C0799DF80410884216D1012000901D4895
:105270000068C06854309DF80430DB1FC2189DF8E8
:105280000400C01FC0001030C1B2154803780720C9
:1052900003F006F814E020E00020009011480068B8
:1052A000C06854309DF80430DB1FC2189DF804001C
:1052B000C01FC0001030C1B20023072002F0F0FF71
:1052C0009DF80400401CC0B201909DF804000E2817
:1052D000C4DB00200349087100BF00BF62E7000083
:1052E000600500200400002070B505460024402120
:1052F0002248FEF775FE80B180212048FEF770FE3F
:1053000058B14FF480711D48FEF76AFE28B14FF482
:1053100000711A48FEF764FE38BB0A20FEF79CFCB9
:1053200040211648FEF75CFE18B9012014490870A8
:1053300021E080211148FEF753FE18B902201049E0
:10534000087018E04FF480710C48FEF749FE18B958
:1053500003200B4908700EE04FF400710748FEF778
:105360003FFE18B904200649087004E00448047898
:10537000002003490870204670BD0000000C014069
:10538000F819002000B585B000200190029003902C
:10539000049000BF1048806940F008000E49886101
:1053A0000846806900F00800009000BF00BF4FF47D
:1053B00070700190094802900120039001A90848EB
:1053C000FEF76EFC002211461720FEF793FE172011
:1053D000FEF780FE05B000BD001002400000311055
:1053E000000C01403EB504460025012C26D0022CBD
:1053F0000ED0032C23D0042C2AD13748007818B9BA
:1054000001203549087002E000203349087020E08F
:105410003148007800B100BF30480068C0790128E9
:1054200004DB00202D490968C87106E02B4800689C
:10543000C079401C29490968C8710AE009E0274879
:105440000068406D2549086001200871012500E0D1
:1054500000BF00BF012D01D100253EBD1CB91F4872
:105460000079012835D12A2002900020019002F015
:10547000CCFD002000901948006800230821C26874
:10548000012002F083FE002000909DF80420D2004D
:105490001032D1B2114A1268D279032303EB4202CF
:1054A000D0B2002302AA02F0FBFE002003460CA2A9
:1054B00020210090032002F069FE002003460AA28A
:1054C00020210090052002F061FE002003490871B0
:1054D00000BF00BFC1E700006005002004000020FD
:1054E000D6D0CEC400000000456E676C69736800BA
:1054F00010B50446012C1DD0022C45D0032C78D0C9
:10550000042C75D102F081FD4748006810304649EF
:105510000968C97950F8210048B143480068103043
:1055200041490968C97950F821003F49086002F0F3
:1055300061FF77E03C480068C07900B972E002F092
:1055400064FD39480068C07930B137480068C079D7
:10555000401E35490968C87133480068C07932492E
:105560000968097988420CDA2F480068C0792E4909
:10557000096808712C4800680079C01C2A4909682C
:10558000487102F037FF4DE027480068C17926488E
:1055900000688079401E814200D143E002F035FD71
:1055A00021480068C079204909688979884206DC69
:1055B0001D480068C079401C1B490968C8711A4819
:1055C0000068C07918490968497988420CDD164895
:1055D0000068C07914490968487113480068407927
:1055E000C01E11490968087102F004FF1AE000E0CA
:1055F0000CE00D480068406D20B10B480068406D1C
:10560000094908600120084908710BE00648007943
:10561000012806D102F0F9FC02F0ECFE002002495C
:10562000087100BF00BF10BD040000207CB5054616
:1056300000260024012D7DD0022D0ED0032D7AD01E
:10564000042D79D1BF48007818B90120BD490870F0
:1056500002E00020BB490870D3E0BA480078002877
:105660004CD1B9480068C0790C2804DB0020B64949
:105670000968C87106E0B4480068C079401CB249A6
:105680000968C871B0480068C0790B2805DDAE48CC
:105690000068C0790B38C4B202E0AB480068C47936
:1056A000A9480068C0790B2190FBF1F000EB800164
:1056B00001EBC000A4490968C96801EB80002030F3
:1056C000005D2E2812D0A0480068C0790B2190FB05
:1056D000F1F000EB800101EBC0009B490968C9684B
:1056E00001EB80002030005D2D287ED196480068B7
:1056F000C079401C94490968C87176E091480078E7
:10570000012872D190480068C0790B2190FBF1F01C
:1057100000EB800101EBC0008B490968C96801EB0F
:1057200080002030005D401CC1B287480068C0790D
:105730000B2202E05AE05AE062E090FBF2F000EB4C
:10574000800202EBC000804A1268D26802EB80003F
:10575000203001557C480068C0790B2190FBF1F0A6
:1057600000EB800101EBC00077490968C96801EBD3
:1057700080002030005D302812DA73480068C0795C
:105780000B2190FBF1F000EB800101EBC0006E49B2
:105790000968C96801EB800020303921015524E0F7
:1057A00069480068C0790B2190FBF1F000EB8001A3
:1057B00001EBC00064490968C96801EB8000203032
:1057C000005D392811DD60480068C0790B2190FB2D
:1057D000F1F000EB800101EBC0005B490968C9688A
:1057E00001EB80002030302101550AE009E05648E5
:1057F0000068406D5449086001200871012600E0EE
:1058000000BF00BF012E01D100267CBD1DB94E484E
:105810000079012872D10020019002F0F6FB0020EF
:1058200000904948006800231021C268012002F05E
:10583000ADFC9DF8040031E043480068C0799DF854
:105840000410884213D1012000903F480068C068CE
:1058500020309DF80430C2189DF80400C0001030BC
:10586000C1B238480378032002F01AFD11E000208D
:10587000009035480068C06820309DF80430C21898
:105880009DF80400C0001030C1B20023032002F0D4
:1058900007FD9DF80400401CC0B201909DF8040073
:1058A0000B28C9DB0020009027480068C06800F181
:1058B000340200231021052002F068FC9DF804004A
:1058C00036E021480068C0799DF80410884216D15E
:1058D000012000901C480068C06854309DF80430D6
:1058E0000B3BC2189DF804000B38C0001030C1B249
:1058F00014480378072002F0D3FC14E020E00020D5
:10590000009011480068C06854309DF804300B3B8B
:10591000C2189DF804000B38C0001030C1B200233B
:10592000072002F0BDFC9DF80400401CC0B20190AD
:105930009DF804000D28C4DB00200349087100BF56
:1059400000BF62E760050020040000207CB505462A
:1059500000260024012D7DD0022D0ED0032D7AD0FB
:10596000042D79D1BF48007818B90120BD490870CD
:1059700002E00020BB490870D3E0BA480078002854
:105980004CD1B9480068C0790C2804DB0020B64926
:105990000968C87106E0B4480068C079401CB24983
:1059A0000968C871B0480068C0790B2805DDAE48A9
:1059B0000068C0790B38C4B202E0AB480068C47913
:1059C000A9480068C0790B2190FBF1F000EB800141
:1059D00001EBC000A4490968C96801EB80002030D0
:1059E000005D2E2812D0A0480068C0790B2190FBE2
:1059F000F1F000EB800101EBC0009B490968C96828
:105A000001EB80002030005D2D287ED19648006893
:105A1000C079401C94490968C87176E091480078C3
:105A2000012872D190480068C0790B2190FBF1F0F9
:105A300000EB800101EBC0008B490968C96801EBEC
:105A400080002030005D401CC1B287480068C079EA
:105A50000B2202E05AE05AE062E090FBF2F000EB29
:105A6000800202EBC000804A1268D26802EB80001C
:105A7000203001557C480068C0790B2190FBF1F083
:105A800000EB800101EBC00077490968C96801EBB0
:105A900080002030005D302812DA73480068C07939
:105AA0000B2190FBF1F000EB800101EBC0006E498F
:105AB0000968C96801EB800020303921015524E0D4
:105AC00069480068C0790B2190FBF1F000EB800180
:105AD00001EBC00064490968C96801EB800020300F
